:020000040000FA
:04000000C2EF5FF0FC
:10BF8400026A0001DCEF5FF0948E949C260EAC6E86
:10BF9400900EAB6E190EAF6E12009EAAD4EF5FF036
:10BFA400D6EF5FF0CFEF5FF0AECF02F0000EAE6ED3
:10BFB40002501200600ED36EB468B59E0F0EC16EAF
:10BFC400C6EC5FF0CFEC5FF0016E0150ECEC5FF07B
:10BFD40000EF00F0036EACA2F2EF5FF0F4EF5FF05D
:10BFE400EDEF5FF0F8EF5FF003C0ADFFACB2FDEF33
:0CBFF4005FF0FFEF5FF0F6EF5FF012006F
:020000040020DA
:08000000FFFFFFFFFFFFFFFF00
:020000040030CA
:0E000000FF081F1EFF8081FF0FC00FE00F40A2
:00000001FF
