:020000040000FA
:04000000CBEF5FF0F3
:10BF9600026A0001F0EF5FF0948E949C260EAC6E60
:10BFA600900EAB6E190EAF6E1200036EACA2DEEFF2
:10BFB6005FF0E0EF5FF0D9EF5FF003C0ADFF120076
:10BFC6009EAAE8EF5FF0EAEF5FF0E3EF5FF0AECF37
:10BFD60002F0000EAE6E02501200600ED36EB46810
:10BFE600B59E0F0EC16ECFEC5FF0E3EC5FF0016E15
:0ABFF6000150D8EC5FF000EF00F0FE
:020000040020DA
:08000000FFFFFFFFFFFFFFFF00
:020000040030CA
:0E000000FF081F1EFF8081FF0FC00FE00F40A2
:00000001FF
