:020000040000FA
:040000008EEF5FF030
:10BF1C00096A086A0001B4EF5FF0948E949C260EB7
:10BF2C00AC6E900EAB6E190EAF6E1200016EACA221
:10BF3C00A2EF5FF0A4EF5FF09DEF5FF001C0ADFFEB
:10BF4C0012009EAAACEF5FF0AEEF5FF0A7EF5FF0D0
:10BF5C00AECF08F0000EAE6E08501200600ED36E1D
:10BF6C00B468B59E0F0EC16E93EC5FF0000E046EBC
:10BF7C00000E036EA7EC5FF0026ED00E0224066E6C
:10BF8C00076AFF0E07229492959206500710D8B4B8
:10BF9C00D2EF5FF0D4EF5FF0F9EF5FF08382EEEF5A
:10BFAC005FF0000E056E8282FA0E00D0E82EFDD7EF
:10BFBC008292FA0E00D0E82EFDD7052A040E0564F5
:10BFCC00EAEF5FF0ECEF5FF0D9EF5FF0034A042A81
:10BFDC000650035C07500458D8A0F7EF5FF0F9EF58
:10BFEC005FF0D7EF5FF0520E9CEC5FF0BCEF5FF0B0
:04BFFC0000EF00F062
:020000040020DA
:08000000FFFFFFFFFFFFFFFF00
:020000040030CA
:0E000000FF081F1EFF8081FF0FC00FE00F40A2
:00000001FF
