:020000040000FA
:04000000A6EF5FF018
:10BF4C000001C4EF5FF08A8A8A9C8A9E1200939A41
:10BF5C00939C939E12008A9A8A9C8A9E12008A9ABB
:10BF6C008A9C8A8E12008A9A8A8C8A9E1200600E93
:10BF7C00D36EB468B59E0F0EC16E1200BDEC5FF0AF
:10BF8C00ADEC5FF0A9EC5FF0060E026E130E016EC5
:10BF9C00AE0EE82EFED7012EFCD7022EFAD7B5EC4A
:10BFAC005FF0060E026E130E016EAE0EE82EFED77B
:10BFBC00012EFCD7022EFAD7B9EC5FF0060E026EFA
:10BFCC00130E016EAE0EE82EFED7012EFCD7022EFC
:10BFDC00FAD7B1EC5FF0060E026E130E016EAE0EC8
:10BFEC00E82EFED7012EFCD7022EFAD7C8EF5FF051
:04BFFC0000EF00F062
:020000040020DA
:08000000FFFFFFFFFFFFFFFF00
:020000040030CA
:0E000000FF081F1EFF8081FF0FC00FE00F40A2
:00000001FF
