:020000040000FA
:0400000007EF00F016
:0A0008003D823AED09F0BAEF0CF06A
:100D000000636F6F7264656E616461732066756500
:100D100072612064656C206C696D69746500436F55
:100D20006D616E646F206E6F207265636F6E6F63AE
:100D300069646F0050726F6365736F20636F6D70CD
:100D40006C657461646F00494E544552525550436E
:100D5000494F4E203000494E544552525550434958
:100D60004F4E203100494E54455252555043494F41
:100D70004E2032004C4953544F20414A555354455C
:0F0D8000205A00456E2070726F6365736F00001C
:100D9000000E806E000E816E000E826E000E836E5D
:100DA000000E846E2EEC0DF08CEC0CF01EEC0DF0B1
:100DB00027EC0DF04DEC0DF049EC0DF045EC0DF08D
:100DC000969009EF07F0010E0F6E2C0E0E6E000EBE
:100DD000116E000E106EAFEC0BF03B50D8B4F3EF79
:100DE00006F0F5EF06F0E3EF06F001EF07F0010E75
:100DF0000F6E2C0E0E6E000E116E000E106E73EC48
:100E00000BF03A50D8B407EF07F009EF07F0F7EF0F
:100E100006F03B50D8B40FEF07F011EF07F0EDEFFD
:100E200006F03A50D8B417EF07F019EF07F0EDEFDE
:100E300006F02EEF07F09EEC0CF0ACEC0CF080AA64
:100E400024EF07F026EF07F02EEF07F0010E386EC3
:100E5000740E0F6E0D0E106E19EC0AF03850D8B4E7
:100E600034EF07F036EF07F01BEF07F0F2EF07F073
:100E7000D4EC0CF0256E480E2518D8B442EF07F0DC
:100E800044EF07F065EF07F0470E2518D8B44BEF95
:100E900007F04DEF07F065EF07F0540E2518D8B4B2
:100EA00054EF07F056EF07F065EF07F0530E2518E3
:100EB000D8B45DEF07F05FEF07F065EF07F0EEECF9
:100EC0000CF041EC0DF051EC0DF0480E2518D8A4B3
:100ED0006CEF07F06EEF07F099EF07F041EC0DF0C3
:100EE000E1EC0CF03DEC0DF084902EC00EF02FC024
:100EF0000FF0000E116E000E106EAFEC0BF00EC076
:100F00002EF00FC02FF02CC00EF02DC00FF0000EF1
:100F1000116E000E106E73EC0BF00EC02CF00FC0B3
:100F20002DF039EC0DF0C7EC0CF0AC9AAB98AC8A14
:100F3000AB88470E2518D8A4A0EF07F0A2EF07F062
:100F4000AFEF07F041EC0DF08490010E396E000E0A
:100F5000336E000E326E000E316E000E306E540E87
:100F60002518D8A4B6EF07F0B8EF07F0DCEF07F0CC
:100F700041EC0DF0E1EC0CF03DEC0DF08490410EF5
:100F8000156EEE0EE82EFED7152EFCD700D084800D
:100F9000030E166E8A0E156E560EE82EFED7152E0F
:100FA000FCD7162EFAD7849039EC0DF0C7EC0CF074
:100FB000AC9AAB98AC8AAB88530E2518D8A4E3EF53
:100FC00007F0E5EF07F0F2EF07F041EC0DF0848059
:100FD000010E396E000E336E000E326E000E316E51
:100FE000000E306E3950D8B4F8EF07F0FAEF07F082
:100FF00038EF07F024EF09F0260E236E000E246E62
:1010000023C00EF024C00FF0060E106E61EC0CF041
:1010100023C00FF024C010F019EC0AF0D00E2624E3
:101020000E6E0F6AFF0E0F22000E116E640E106E10
:1010300079EC0CF00EC017F00FC018F0D00E27247A
:101040000E6E0F6AFF0E0F22000E116E0A0E106E4A
:1010500079EC0CF00EC019F00FC01AF0D00E282455
:101060001B6E1C6AFF0E1C2219501724156E1A5095
:101070001820166E1B501524366E1C501620376E25
:10108000D00E29240E6E0F6AFF0E0F22000E116E75
:10109000640E106E79EC0CF00EC01DF00FC01EF047
:1010A000D00E2A240E6E0F6AFF0E0F22000E116E54
:1010B0000A0E106E79EC0CF00EC01FF00FC020F07D
:1010C000D00E2B24216E226AFF0E22221F501D24D7
:1010D000156E20501E20166E21501524346E22509D
:1010E0001620356E2D0E365C010E3758D8B07BEFCA
:1010F00008F07DEF08F088EF08F02D0E345C010E4B
:101100003558D8A086EF08F088EF08F08CEF08F08B
:10111000FBEC0CF051EC0DF02D0E365C010E375847
:10112000D8B095EF08F097EF08F024EF09F02D0EF6
:10113000345C010E3558D8B0A0EF08F0A2EF08F0EB
:1011400024EF09F041EC0DF0E1EC0CF03DEC0DF07A
:1011500036502E5C37502F58D8B0B1EF08F0B3EFAF
:1011600008F0C3EF08F0AC9AAB982EC00EF02FC079
:101170000FF036C010F037C011F026EC0CF00EC0A6
:101180002EF00FC02FF02E50365C2F503758D8B0AD
:10119000CCEF08F0CEEF08F0DEEF08F0AC9AAB9899
:1011A0002EC00EF02FC00FF036C010F037C011F077
:1011B000AFEC0BF00EC02EF00FC02FF034502C5CB3
:1011C00035502D58D8B0E7EF08F0E9EF08F0F9EF07
:1011D00008F0AC9AAB982CC00EF02DC00FF034C0C4
:1011E00010F035C011F0EBEC0BF00EC02CF00FC07E
:1011F0002DF02C50345C2D503558D8B002EF09F04A
:1012000004EF09F014EF09F0AC9AAB982CC00EF083
:101210002DC00FF034C010F035C011F073EC0BF09E
:101220000EC02CF00FC02DF0AC8AAB8839EC0DF05D
:10123000C7EC0CF0000E396E000E336E010E326EEC
:10124000000E316E010E306E32503310D8A42BEFE9
:1012500009F02DEF09F0F2EF07F030503110D8B45B
:1012600034EF09F036EF09F0FCEF07F0F2EF07F08A
:1012700007EF00F00600E9CF08F0EACF09F0F6CF5B
:101280000AF0F7CF0BF0F8CF0CF0F5CF0DF0F2A28B
:101290004CEF09F04EEF09F06BEF09F0470E026ECC
:1012A0000D0E036EB1EC09F0010E026E5E0E016EC2
:1012B000000E046E000E036EBBEC0AF0010E026E0F
:1012C0005E0E016E000E046E000E036E7DEC0AF0E1
:1012D000F292F090F092F0A070EF09F072EF09F046
:1012E00087EF09F0560E026E0D0E036EB1EC09F099
:1012F000000E026E000E016E000E046E0A0E036EEA
:1013000036EC0BF0010E3B6EF292F090F092F0A2F0
:101310008CEF09F08EEF09F0A3EF09F0650E026E75
:101320000D0E036EB1EC09F0000E026E000E016EA0
:10133000000E046E0A0E036EF9EC0AF0010E3A6E0E
:10134000F292F090F0920DC0F5FF0CC0F8FF0BC0C8
:10135000F7FF0AC0F6FF09C0EAFF08C0E9FF3D92A7
:101360001100000E076E0728D8A4B9EF09F0BBEFF3
:1013700009F0BDEF09F018EF0AF007500224046EDF
:10138000000E0320056E04C0F6FF05C0F7FFF86AE3
:101390000C0EF76403D00800F55005D0F6CFE9FF36
:1013A000F7CFEAFFEF50066E1F0E0664DAEF09F082
:1013B000DCEF09F018EF0AF007500224046E000E6B
:1013C0000320056E04C0F6FF05C0F7FFF86A0C0E97
:1013D000F76403D00800F55005D0F6CFE9FFF7CF4A
:1013E000EAFFEF50066E7A0E0664F9EF09F0FBEFA4
:1013F00009F0FDEF09F018EF0AF007500224046E1F
:10140000000E0320056E04C0F6FF05C0F7FFF86A62
:101410000C0EF76403D00800F55005D0F6CFE9FFB5
:10142000F7CFEAFFEF5013EC0DF0072AB3EF09F006
:101430001200000E146E14500F24116E000E1020B6
:10144000126E11C0F6FF12C0F7FFF86A0C0EF764B7
:1014500003D00800F55005D0F6CFE9FFF7CFEAFF3B
:10146000EF50136E1F0E136438EF0AF03AEF0AF0D4
:101470007CEF0AF014500F24116E000E1020126E33
:1014800011C0F6FF12C0F7FFF86A0C0EF76403D024
:101490000800F55005D0F6CFE9FFF7CFEAFFEF508F
:1014A000136E7A0E136457EF0AF059EF0AF05BEFF0
:1014B0000AF07CEF0AF014500F24116E000E102079
:1014C000126E11C0F6FF12C0F7FFF86A0C0EF76437
:1014D00003D00800F55005D0F6CFE9FFF7CFEAFFBB
:1014E000EF5008EC0DF0142A1428D8A47AEF0AF073
:1014F0007CEF0AF01BEF0AF012000150035C02506F
:101500000458D8B086EF0AF088EF0AF0BAEF0AF074
:1015100083948396AEEF0AF0000E056E040E056408
:1015200094EF0AF096EF0AF098EF0AF0ABEF0AF0AA
:101530008284C80E00D0E82EFDD78294C80E00D059
:10154000E82EFDD7052A040E0564A9EF0AF0ABEFDB
:101550000AF098EF0AF00106D8A002060150035CD9
:1015600002500458D8A0B7EF0AF0B9EF0AF08CEF98
:101570000AF0838412000150035C02500458D8B072
:10158000C4EF0AF0C6EF0AF0F8EF0AF083908392F6
:10159000ECEF0AF0000E056E040E0564D2EF0AF0BF
:1015A000D4EF0AF0D6EF0AF0E9EF0AF08282C80E13
:1015B00000D0E82EFDD78292C80E00D0E82EFDD7CD
:1015C000052A040E0564E7EF0AF0E9EF0AF0D6EF0A
:1015D0000AF00106D8A002060150035C025004582C
:1015E000D8A0F5EF0AF0F7EF0AF0CAEF0AF083800F
:1015F00012000350015C04500258D8B002EF0BF007
:1016000004EF0BF035EF0BF08394838629EF0BF09A
:10161000000E056E040E056410EF0BF012EF0BF0D8
:1016200014EF0BF027EF0BF08284C80E00D0E82EE9
:10163000FDD78294C80E00D0E82EFDD7052A040EEF
:10164000056425EF0BF027EF0BF014EF0BF0014AC8
:10165000022A0350015C04500258D8A032EF0BF06C
:1016600034EF0BF008EF0BF0838412000350015CA1
:1016700004500258D8B03FEF0BF041EF0BF072EF7F
:101680000BF08390838266EF0BF0000E056E040E64
:1016900005644DEF0BF04FEF0BF051EF0BF064EFE3
:1016A0000BF08282C80E00D0E82EFDD78292C80EC1
:1016B00000D0E82EFDD7052A040E056462EF0BF07A
:1016C00064EF0BF051EF0BF0014A022A0350015C6A
:1016D00004500258D8A06FEF0BF071EF0BF045EFFC
:1016E0000BF0838012000E50105C0F501158D8B0D0
:1016F0007CEF0BF07EEF0BF0AEEF0BF08394839654
:101700009AEF0BF0000E126E8284C80E00D0E82E05
:10171000FDD78294C80E00D0E82EFDD7122A040E01
:10172000126495EF0BF097EF0BF084EF0BF00E06C1
:10173000D8A00F060E50105C0F501158D8A0A3EF80
:101740000BF0A5EF0BF082EF0BF0838410C00EF0CE
:1017500011C00FF00EC00EF00FC00FF012000E50AF
:10176000105C0F501158D8B0B8EF0BF0BAEF0BF077
:10177000EAEF0BF083908392D6EF0BF0000E126E1F
:101780008282C80E00D0E82EFDD78292C80E00D00B
:10179000E82EFDD7122A040E1264D1EF0BF0D3EF1E
:1017A0000BF0C0EF0BF00E06D8A00F060E50105C29
:1017B0000F501158D8A0DFEF0BF0E1EF0BF0BEEFA8
:1017C0000BF0838010C00EF011C00FF00EC00EF0B1
:1017D0000FC00FF0120010500E5C11500F58D8B00F
:1017E000F4EF0BF0F6EF0BF025EF0CF0839483860B
:1017F00011EF0CF0000E126E8284C80E00D0E82E9D
:10180000FDD78294C80E00D0E82EFDD7122A040E10
:1018100012640DEF0CF00FEF0CF0FCEF0BF00E4A22
:101820000F2A10500E5C11500F58D8A01AEF0CF070
:101830001CEF0CF0FAEF0BF0838410C00EF011C017
:101840000FF00EC00EF00FC00FF0120010500E5C23
:1018500011500F58D8B02FEF0CF031EF0CF060EFB3
:101860000CF0839083824CEF0CF0000E126E82829B
:10187000C80E00D0E82EFDD78292C80E00D0E82E08
:10188000FDD7122A040E126448EF0CF04AEF0CF058
:1018900037EF0CF00E4A0F2A10500E5C11500F5803
:1018A000D8A055EF0CF057EF0CF035EF0CF083801B
:1018B00010C00EF011C00FF00EC00EF00FC00FF0F0
:1018C0001200000E116E6FEF0CF011500E24D96E45
:1018D000000E0F20DA6ED4EC0CF0DF6E112A1050DF
:1018E000115CD8A076EF0CF078EF0CF065EF0CF0FF
:1018F00012000E501002F3CF12F0F4CF13F00E507E
:101900001102F35013260F501002F350132612C089
:101910000EF013C00FF01200938093829384D09E38
:10192000F28EF29CF288F292F18CF18AF188F08EBC
:10193000F08CF088F086F092F0901200A2EF0CF09C
:1019400035EC0DF082B8A7EF0CF0A9EF0CF0A0EF8A
:101950000CF055EC0DF01200B0EF0CF059EC0DF05E
:1019600082BAB5EF0CF0B7EF0CF0AEEF0CF055EC1F
:101970000DF0120000EE2CF0110EEE6AE806FDE10B
:101980003D903D92000EF86E0001C8EF06F00A0E81
:1019900008EC0DF0340E0F6E0D0E106E19EC0AF0FF
:1019A0000A0E08EC0DF012009EAAD9EF0CF0DBEF46
:1019B0000CF0D4EF0CF0AECF3CF0000EAE6E3C500D
:1019C00012000A0E08EC0DF0830E0F6E0D0E106E55
:1019D00019EC0AF00A0E08EC0DF012000A0E08ECE1
:1019E0000DF01E0E0F6E0D0E106E19EC0AF00A0EA1
:1019F00008EC0DF012000A0E08EC0DF0010E0F6E4F
:101A00000D0E106E19EC0AF00A0E08EC0DF0120023
:101A10000E6EACA20EEF0DF010EF0DF009EF0DF011
:101A20000EC0ADFF1200016EACA219EF0DF01BEF5E
:101A30000DF014EF0DF001C0ADFF1200948E949CD8
:101A4000260EAC6E900EAB6E190EAF6E1200949215
:101A5000959295909494959695941200600ED36EFD
:101A6000B468B59E0F0EC16E12008C888C8A8C9C57
:101A700012008A9A8A8C8A9E12008A9A8A9C8A8E7E
:101A800012008A9A8A9C8A9E1200939A939C939E33
:101A900012009598959A959C12009488948A928A3F
:101AA00012008A8A8A9C8A9E12008C988C9C8C9A3E
:0A1AB00012008C888C8C8C9A1200B6
:020000040020DA
:08000000FFFFFFFFFFFFFFFF00
:020000040030CA
:0E000000FF081F1EFF8081FF0FC00FE00F40A2
:00000001FF
