:020000040000FA
:040000001FEF5EF0A0
:10BC3600C28028EC5EF012000F6A0E6A0D6A0C6A6A
:10BC46000B6A0A6A000178EF5EF0C28200F0C2B2A7
:10BC56002FEF5EF031EF5EF02AEF5EF000F0C3CF1B
:10BC66000FF0C4CF0EF0120001500302F3CF05F01F
:10BC7600F4CF06F001500402F350062602500302E8
:10BC8600F350062605C001F006C002F01200016E50
:10BC9600080E0118D8A452EF5EF054EF5EF055EF8F
:10BCA6005EF0C09E0A0E0118D8A45CEF5EF05EEF4F
:10BCB6005EF05FEF5EF0C08E1200016E0150D8A4F8
:10BCC60067EF5EF069EF5EF06DEF5EF0CF0EC116C6
:10BCD60077EF5EF00104D8A473EF5EF075EF5EF0C7
:10BCE60077EF5EF0C18AC1881200600ED36E928033
:10BCF600000E946E000E956E000E076E0A0E086E0C
:10BD0600010E91EC5EF0000EE3EC5EF01BEC5EF0D3
:10BD16000FC082FF0EC083FF00EF00F0096EC290D5
:10BD2600095070EC5FF0075060EC5EF008504AEC8A
:10BD36005EF0000E0B6E190E0A6E000E0D6E640E8E
:10BD46000C6EC050F80B0409C06E000E026E640E35
:10BD5600016E000E046E060E036E37EC5EF0060EE4
:10BD6600015C050E0258D8A0BBEF5EF0BDEF5EF099
:10BD7600C3EF5EF0C050C70B1809C06EE2EF5EF06D
:10BD8600000E026E640E016E000E046E0C0E036E43
:10BD960037EC5EF0060E015C050E0258D8A0D6EF11
:10BDA6005EF0D8EF5EF0DEEF5EF0C050C70B2809FC
:10BDB600C06EE2EF5EF0C050C70B3009C06E1200D5
:10BDC600016E0150D8A4EAEF5EF0ECEF5EF0EEEF04
:10BDD6005EF0C30EC2160104D8A4F4EF5EF0F6EFCF
:10BDE6005EF0FAEF5EF0C250C30B0409C26E020E9B
:10BDF6000118D8A401EF5FF003EF5FF007EF5FF0E3
:10BE0600C250C30B0809C26E030E0118D8A40EEF68
:10BE16005FF010EF5FF014EF5FF0C250C30B0C0938
:10BE2600C26E040E0118D8A41BEF5FF01DEF5FF081
:10BE360021EF5FF0C250C30B1009C26E050E011848
:10BE4600D8A428EF5FF02AEF5FF02EEF5FF0C25024
:10BE5600C30B1409C26E060E0118D8A435EF5FF0A5
:10BE660037EF5FF03BEF5FF0C250C30B1809C26EAD
:10BE7600070E0118D8A442EF5FF044EF5FF048EFD9
:10BE86005FF0C250C30B1C09C26E080E0118D8A47D
:10BE96004FEF5FF051EF5FF055EF5FF0C250C30B0D
:10BEA6002009C26E090E0118D8A45CEF5FF05EEFA0
:10BEB6005FF062EF5FF0C250C30B2409C26E0A0E38
:10BEC6000118D8A469EF5FF06BEF5FF06FEF5FF0DA
:10BED600C250C30B2809C26E1200016E0104D8A419
:10BEE60077EF5FF079EF5FF07DEF5FF0C150F00B19
:10BEF6000E09C16E020E0118D8A484EF5FF086EF1A
:10BF06005FF08AEF5FF0C150F00B0D09C16E030EB2
:10BF16000118D8A491EF5FF093EF5FF097EF5FF011
:10BF2600C150F00B0C09C16E040E0118D8A49EEF87
:10BF36005FF0A0EF5FF0A4EF5FF0C150F00B0B09CC
:10BF4600C16E050E0118D8A4ABEF5FF0ADEF5FF040
:10BF5600B1EF5FF0C150F00B0A09C16E060E011871
:10BF6600D8A4B8EF5FF0BAEF5FF0BEEF5FF0C15054
:10BF7600F00B0909C16E070E0118D8A4C5EF5FF0D2
:10BF8600C7EF5FF0CBEF5FF0C150F00B0809C16E51
:10BF9600080E0118D8A4D2EF5FF0D4EF5FF0D8EF07
:10BFA6005FF0C150F00B0709C16E090E0118D8A445
:10BFB600DFEF5FF0E1EF5FF0E5EF5FF0C150F00B10
:10BFC6000609C16E0A0E0118D8A4ECEF5FF0EEEF79
:10BFD6005FF0F2EF5FF0C150F00B0509C16E0B0E7A
:10BFE6000118D8A4F9EF5FF0FBEF5FF0FFEF5FF009
:0ABFF600C150F00B0409C16E1200E7
:020000040020DA
:08000000FFFFFFFFFFFFFFFF00
:020000040030CA
:0E000000FF081F1EFF8081FF0FC00FE00F40A2
:00000001FF
