:020000040000FA
:0400000074EF07F0A2
:100D000000636F6F7264656E616461732066756500
:100D100072612064656C206C696D69746500436F55
:100D20006D616E646F206E6F207265636F6E6F63AE
:100D300069646F0050726F6365736F20636F6D70CD
:100D40006C657461646F00456E2070726F636573CB
:030D50006F000031
:100D5400000E066E06500224046E000E0320056E7B
:100D640004C0F6FF05C0F7FF1F0E0800F564BDEFD1
:100D740006F0BFEF06F0EBEF06F006500224046E17
:100D8400000E0320056E04C0F6FF05C0F7FF7A0EBF
:100D94000800F564D0EF06F0D2EF06F0D4EF06F0C9
:100DA400EBEF06F006500224046E000E0320056EDD
:100DB40004C0F6FF05C0F7FF0800F55060EC07F02B
:100DC400062A0628D8A4E9EF06F0EBEF06F0ACEF0C
:100DD40006F01200600ED36EB468B59E0F0EC16E9D
:100DE4006BEC07F046EC07F0060E086E130E076E68
:100DF400AE0EE82EFED7072EFCD7082EFAD753ECFA
:100E040007F0060E086E130E076EAE0EE82EFED720
:100E1400072EFCD7082EFAD72CEC07F0060E086E26
:100E2400130E076EAE0EE82EFED7072EFCD7082E43
:100E3400FAD739EC07F0060E086E130E076EAE0EE5
:100E4400E82EFED7072EFCD7082EFAD7F4EF06F0CB
:100E540000EF00F00A0E60EC07F0340E026E0D0E87
:100E6400036EAAEC06F00A0E60EC07F012000A0EFC
:100E740060EC07F0470E026E0D0E036EAAEC06F04E
:100E84000A0E60EC07F012000A0E60EC07F01E0E6A
:100E9400026E0D0E036EAAEC06F00A0E60EC07F06B
:100EA40012000A0E60EC07F0010E026E0D0E036EC6
:100EB400AAEC06F00A0E60EC07F01200016EACA278
:100EC40066EF07F068EF07F061EF07F001C0ADFFD0
:100ED4001200948E949C260EAC6E900EAB6E190E7E
:100EE400AF6E1200096A000EF86E0D0EF76E000167
:040EF400ECEF06F029
:020000040020DA
:08000000FFFFFFFFFFFFFFFF00
:020000040030CA
:0E000000FF081F1EFF8081FF0FC00FE00F40A2
:00000001FF
