:020000040000FA
:040000009BEF5FF023
:10BEE3005072656E6469646F004170616761646F6D
:10BEF30000948E949C260EAC6E900EAB6E190EAF12
:10BF03006E1200126EACA289EF5FF08BEF5FF084CC
:10BF1300EF5FF012C0ADFF12009EAA93EF5FF095A2
:10BF2300EF5FF08EEF5FF0AECF18F0000EAE6E183D
:10BF3300501200E30EF66EBE0EF76E000EF86E00A2
:10BF4300EE01F010EE11F00900F5CFEEFFE550E140
:10BF530050FAE1186A0001AFEF5FF0600ED36EB4E0
:10BF630068B59E0F0EC16E93907AEC5FF08EEC5F16
:10BF7300F0136E1350166E176A310E16181710D879
:10BF8300A4C6EF5FF0C8EF5FF0DDEF5FF0818000E4
:10BF93000E146E010E1424D96EDA6A000EDA22DF53
:10BFA3005083EC5FF0142A070E1464DBEF5FF0DDBF
:10BFB300EF5FF0CBEF5FF0300E16181710D8A4E543
:10BFC300EF5FF0E7EF5FF0B8EF5FF08190000E15E1
:10BFD3006E0A0E1524D96EDA6A000EDA22DF508358
:10BFE300EC5FF0152A060E1564FAEF5FF0FCEF5FC5
:0DBFF300F0EAEF5FF0B8EF5FF000EF00F054
:020000040020DA
:08000000FFFFFFFFFFFFFFFF00
:020000040030CA
:0E000000FF081F1EFF8081FF0FC00FE00F40A2
:00000001FF
