:020000040000FA
:0400000092EF5FF02C
:10BF240000019CEF5FF0600ED36EB468B59E0F0EF7
:10BF3400C16E120095EC5FF093909290959094905E
:10BF44008A808C8089908B90060E026E130E016E8F
:10BF5400AE0EE82EFED7012EFCD7022EFAD78AB0F9
:10BF6400B6EF5FF0B9EF5FF0010EBAEF5FF0000ECD
:10BF7400FF0A016E8A500118FE0B01188A6E8CB0FC
:10BF8400C6EF5FF0C9EF5FF0010ECAEF5FF0000E7D
:10BF9400FF0A016E8C500118FE0B01188C6E89B0DB
:10BFA400D6EF5FF0D9EF5FF0010EDAEF5FF0000E2D
:10BFB400FF0A016E89500118FE0B0118896E8BB0BF
:10BFC400E6EF5FF0E9EF5FF0010EEAEF5FF0000EDD
:10BFD400FF0A016E8B500118FE0B01188B6E060EC2
:10BFE400026E130E016EAE0EE82EFED7012EFCD7A4
:0CBFF400022EFAD7A2EF5FF000EF00F081
:020000040020DA
:08000000FFFFFFFFFFFFFFFF00
:020000040030CA
:0E000000FF081F1EFF8081FF0FC00FE00F40A2
:00000001FF
