:020000040000FA
:04000000C1EF5FF0FD
:10BF70008C8C8C9A12008C9C8C9A12008C8A8C9CD3
:10BF800012000001F0EF5FF09488948A938412000D
:10BF90009598959A959C8C881200600ED36EB46823
:10BFA000B59E0F0EC16E1200D8EF5FF0B8EC5FF0D7
:10BFB00082BADDEF5FF0DFEF5FF0D6EF5FF0BBEC52
:10BFC0005FF01200E6EF5FF0BEEC5FF082B8EBEFDF
:10BFD0005FF0EDEF5FF0E4EF5FF0BBEC5FF01200BD
:10BFE000600ED36ECDEC5FF0C8EC5FF0C4EC5FF098
:10BFF000E2EC5FF0D4EC5FF0F8EF5FF000EF00F000
:020000040020DA
:08000000FFFFFFFFFFFFFFFF00
:020000040030CA
:0E000000FF081F1EFF8081FF0FC00FE00F40A2
:00000001FF
