:020000040000FA
:0400000088EF5FF036
:10BEC200486F6C61204D756E646F0A00948E949C6D
:10BED200260EAC6E900EAB6E190EAF6E1200016E96
:10BEE200ACA276EF5FF078EF5FF071EF5FF001C028
:10BEF200ADFF12009EAA80EF5FF082EF5FF07BEF52
:10BF02005FF0AECF1FF0000EAE6E1F501200C20ED9
:10BF1200F66EBE0EF76E000EF86E00EE13F010EE27
:10BF22000CF00900F5CFEEFFE550E150FAE11F6A8F
:10BF32000001D9EF5FF0000E046EAAEF5FF004502B
:10BF42000124D96E000E0220DA6E7BEC5FF0DF6E08
:10BF5200042A0350045CD8A0B1EF5FF0B3EF5FF0A6
:10BF6200A0EF5FF01200000E046E04500224D96E9E
:10BF7200000E0320DA6EDF50D8A4C2EF5FF0C4EFE8
:10BF82005FF0C6EF5FF0D8EF5FF004500224D96E85
:10BF9200000E0320DA6EDF5070EC5FF0042A0428F2
:10BFA200D8A4D6EF5FF0D8EF5FF0B6EF5FF01200E3
:10BFB200600ED36EB468B59E0F0EC16E67EC5FF073
:10BFC20020EE13F010EE05F00B0EDBCFE3FFE806D8
:10BFD200FCE2050E116E000E126E11C002F012C0CC
:10BFE20003F0B4EC5FF011C001F012C002F0090ED0
:0EBFF200036E9CEC5FF0EEEF5FF000EF00F0EE
:020000040020DA
:08000000FFFFFFFFFFFFFFFF00
:020000040030CA
:0E000000FF081F1EFF8081FF0FC00FE00F40A2
:00000001FF
