:020000040000FA
:0400000047EF29F0AD
:100D00000000000000DCCFD1350000000000C0155D
:100D10003F6042A20D70A5EC363BAAB83F4F387633
:100D20003F3CAA38338CBEBF350072313F18723158
:100D30003F4CBB31330EEADDB555B38A38610B3613
:100D4000BBABAA2A3E42F1533E55326C3E05A38B03
:100D50003EABAAAA3EB76DDB3E9A99193F6042A20C
:100D60000DCAF249710000804B0000803F0000C0B6
:0F0D70003F00AAB83FC623F6B80040763F000008
:100D800088C0B8F189C0B9F18AC0BAF18BC0BBF193
:100D9000B8C160F1B9C161F1BAC162F1BBC163F11F
:100DA0008CC0B8F18DC0B9F18EC0BAF18FC0BBF163
:100DB000B8C184F1B9C185F1BAC186F1BBC187F16F
:100DC000FF0E01016015A86FFF0E6115A96FFF0EE0
:100DD0006215AA6F7F0E6315AB6FFF0E8415986FB7
:100DE000FF0E8515996FFF0E86159A6F7F0E87157A
:100DF0009B6F985199119A119B11D8A402EF07F09B
:100E000004EF07F00FEF07F0000E0001886F000EEF
:100E1000896F800E8A6F3F0E8B6F31EF1BF0800E53
:100E2000621909E13F0E631960116111D8A41BEF2B
:100E300007F01DEF07F028EF07F0000E0001886FA4
:100E4000000E896F800E8A6F3F0E8B6F31EF1BF0A3
:100E5000ABBF39EF07F0A805000EA959800EAA59BB
:100E60007F0EAB59D8B037EF07F039EF07F04AEFF4
:100E700007F09BBF48EF07F09805000E9959800EC8
:100E80009A597F0E9B59D8A048EF07F04AEF07F018
:100E900066EF07F088C001F089C002F08AC003F055
:100EA0008BC004F08CC005F08DC006F08EC007F03A
:100EB0008FC008F092EC1DF001C088F002C089F0EC
:100EC00003C08AF004C08BF031EF1BF0000E506FAE
:100ED000000E516F000E526F000E536F63BF75EF1F
:100EE00007F073EF07F020EF08F09BBF81EF07F0EA
:100EF000800E9A5D4B0E9B59D8A081EF07F083EFCF
:100F000007F08DEF07F0020E506F000E516F000ECC
:100F1000526F000E536F20EF08F09BBF99EF07F060
:100F2000800E9A5D3F0E9B59D8A099EF07F09BEF7A
:100F300007F020EF08F0170E4B6E98C14CF099C1E6
:100F40004DF09AC14EF09BC14FF04B66AAEF07F0EF
:100F5000B2EF07F04F344F324E324D324C324B2EFF
:100F6000A5EF07F0810E4C240101A06FFF0E4D206C
:100F7000A16FFF0E4E20A26FFF0E4F20A36FA05156
:100F800017084B6E98C14CF099C14DF09AC14EF0C4
:100F90009BC14FF04B66CFEF07F0D7EF07F04F3410
:100FA0004F324E324D324C324B2ECAEF07F04CC00E
:100FB000ACF14DC0ADF14EC0AEF14FC0AFF101018B
:100FC000A05117084B6EACC14CF0ADC14DF0AEC195
:100FD0004EF0AFC14FF04B2AF3EF07F0D8904C36EC
:100FE0004D364E364F364B2EEEEF07F098514C18DB
:100FF0000DE199514D180AE19A514E1807E19B51A4
:101000004F18D8A406EF08F008EF08F020EF08F01A
:10101000010EAC154B6E000EAD154C6E000EAE15EC
:101020004D6E000EAF154E6E4B500208506F000E05
:101030004C54516F000E4D54526F000E4E54536F6E
:10104000800E9A1909E17F0E9B1998119911D8A465
:101050002CEF08F02EEF08F09AEF08F0800EAA1996
:1010600009E13F0EAB19A811A911D8A43AEF08F075
:101070003CEF08F047EF08F0000E0001886F000E0B
:10108000896F800E8A6F3F0E8B6F31EF1BF0ABBF05
:1010900056EF08F0A805000EA959800EAA593F0E78
:1010A000AB59D8A056EF08F058EF08F074EF08F0ED
:1010B00087BF5FEF08F05DEF08F06AEF08F0000E01
:1010C0000001886F000E896F000E8A6F000E8B6F13
:1010D00031EF1BF08CC088F08DC089F08EC08AF093
:1010E0008FC08BF031EF1BF087BF7BEF08F079EFFB
:1010F00008F08FEF08F08CC001F08DC002F08EC0B8
:1011000003F08FC004F0E3EC28F001C088F002C0C7
:1011100089F003C08AF004C08BF031EF1BF0000EA1
:101120000001886F000E896F000E8A6F000E8B6FB2
:1011300031EF1BF0800E9A1909E13F0E9B199811AF
:101140009911D8A4A6EF08F0A8EF08F0D5EF08F0A1
:1011500087BFAFEF08F0ADEF08F0CBEF08F0000E5F
:10116000326E000E336E800E346E3F0E356E88C0C8
:1011700036F089C037F08AC038F08BC039F007EC00
:1011800022F032C088F033C089F034C08AF035C014
:101190008BF031EF1BF088C088F089C089F08AC0DD
:1011A0008AF08BC08BF031EF1BF0400E8719841151
:1011B00085118611D8A4DFEF08F0E1EF08F0FDEF0C
:1011C00008F088C011F089C012F08AC013F08BC0FB
:1011D00014F088C015F089C016F08AC017F08BC0D3
:1011E00018F0F2EC1FF011C088F012C089F013C0A3
:1011F0008AF014C08BF031EF1BF03F0E8719841179
:1012000085118611D8A407EF09F009EF09F024EF42
:1012100009F063BF0EEF09F010EF09F024EF09F0B9
:1012200088C03EF089C03FF08AC040F08BC041F0DA
:1012300032EC1BF03EC088F03FC089F040C08AF01D
:1012400041C08BF031EF1BF088C001F089C002F083
:101250008AC003F08BC004F0FFEC28F001C070F1ED
:1012600002C071F103C072F104C073F1800E01017C
:10127000AA190BE17F0EAB19A811A911D8B443EF3D
:1012800009F045EF09F05EEF09F0A851A911AA1184
:10129000AB11D8B44EEF09F050EF09F05EEF09F052
:1012A000800EAA1909E13F0EAB19A811A911D8A403
:1012B0005CEF09F05EEF09F019EF0AF070C1B4F1CC
:1012C00071C1B5F172C1B6F173C1B7F187BF6DEFEE
:1012D00009F06BEF09F087EF09F0000E326E000E97
:1012E000336E800E346E3F0E356EB4C136F0B5C12C
:1012F00037F0B6C138F0B7C139F007EC22F032C090
:10130000B4F133C0B5F134C0B6F135C0B7F1010165
:1013100063BF8FEF09F08DEF09F00FEF0AF0000EB9
:10132000A8254B6E000EA9214C6E800EAA214D6E91
:10133000C00EAB214E6E50514B104F6E51514C10A0
:10134000506E52514D10516E53514E10526E4F50BF
:10135000501051105210D8A4B0EF09F0B2EF09F0BC
:10136000F2EF09F0B4C12EF0B5C12FF0B6C130F0E4
:10137000B7C131F0B4C12AF0B5C12BF0B6C12CF021
:10138000B7C12DF0C0EC28F02AC032F02BC033F0EA
:101390002CC034F02DC035F0B4C12EF0B5C12FF003
:1013A000B6C130F0B7C131F0B4C12AF0B5C12BF0ED
:1013B000B6C12CF0B7C12DF0C0EC28F02AC036F031
:1013C0002BC037F02CC038F02DC039F007EC22F0DC
:1013D00032C0B4F133C0B5F134C0B6F135C0B7F1A5
:1013E0000FEF0AF05005511152115311D8A4FBEF21
:1013F00009F0FDEF09F00FEF0AF0B4C101F0B5C13B
:1014000002F0B6C103F0B7C104F0E3EC28F001C06C
:10141000B4F102C0B5F103C0B6F104C0B7F1B4C174
:1014200088F0B5C189F0B6C18AF0B7C18BF031EF51
:101430001BF0000E886F000E896F800E8A6F3F0EC2
:101440008B6F63BF28EF0AF026EF0AF086EF0AF0F1
:101450005051511152115311D8A431EF0AF033EF0A
:101460000AF073EF0AF088C02EF089C02FF08AC00E
:1014700030F08BC031F088C02AF089C02BF08AC0D0
:101480002CF08BC02DF0C0EC28F02AC032F02BC01D
:1014900033F02CC034F02DC035F088C02EF089C058
:1014A0002FF08AC030F08BC031F088C02AF089C09C
:1014B0002BF08AC02CF08BC02DF0C0EC28F02AC095
:1014C00036F02BC037F02CC038F02DC039F007ECC7
:1014D00022F032C088F033C089F034C08AF035C0C1
:1014E0008BF031EF1BF05005511152115311D8A45C
:1014F0007CEF0AF07EEF0AF086EF0AF0000E886FAC
:10150000000E896F800E8A6FBF0E8B6F9BBF95EFA9
:101510000AF09805000E9959000E9A594D0E9B59E4
:10152000D8A095EF0AF097EF0AF01CEF0DF0ABBFD3
:10153000A9EF0AF0F80EA85DFF0EA9597F0EAA596F
:101540003F0EAB59D8B0A7EF0AF0A9EF0AF01CEF95
:101550000BF087BFAEEF0AF0B0EF0AF0E6EF0AF04B
:10156000600E156E420E166EA20E176E0D0E186EE0
:1015700088C111F089C112F08AC113F08BC114F037
:10158000F2EC1FF011C0A4F112C0A5F113C0A6F136
:1015900014C0A7F1A4C111F0A5C112F0A6C113F0A7
:1015A000A7C114F0600E156E420E166EA20E176ED5
:1015B0000D0E186EF2EC1FF011C088F012C089F009
:1015C00013C08AF014C08BF031EF1BF0CA0E156EF9
:1015D000F20E166E490E176E710E186E88C111F05C
:1015E00089C112F08AC113F08BC114F0F2EC1FF024
:1015F00011C0A4F112C0A5F113C0A6F114C0A7F147
:10160000A4C111F0A5C112F0A6C113F0A7C114F036
:10161000CA0E156EF20E166E490E176E710E186E0A
:10162000F2EC1FF011C088F012C089F013C08AF0EC
:1016300014C08BF031EF1BF0ABBF2CEF0BF0080E9A
:10164000A85D000EA959800EAA593F0EAB59D8A02B
:101650002CEF0BF02EEF0BF0A9EF0BF087BF3DEF57
:101660000BF087518611851106E18405D8B03BEF58
:101670000BF03DEF0BF073EF0BF0600E156E420EAA
:10168000166EA20E176E0D0E186E88C111F089C16C
:1016900012F08AC113F08BC114F0F2EC1FF011C0EC
:1016A000A4F112C0A5F113C0A6F114C0A7F1A4C102
:1016B00011F0A5C112F0A6C113F0A7C114F0600E7D
:1016C000156E420E166EA20E176E0D0E186EF2EC0F
:1016D0001FF011C088F012C089F013C08AF014C046
:1016E0008BF031EF1BF0CA0E156EF20E166E490E1E
:1016F000176E710E186E88C111F089C112F08AC17F
:1017000013F08BC114F0F2EC1FF011C0A4F112C061
:10171000A5F113C0A6F114C0A7F1A4C111F0A5C191
:1017200012F0A6C113F0A7C114F0CA0E156EF20E86
:10173000166E490E176E710E186EF2EC1FF011C086
:1017400088F012C089F013C08AF014C08BF031EF1A
:101750001BF070C101F071C102F072C103F073C1DE
:1017600004F0000E056E000E066E800E076EBF0EB2
:10177000086E92EC1DF001C0B0F102C0B1F103C0DF
:10178000B2F104C0B3F1000E156E000E166E800E9D
:10179000176E3E0E186EB0C111F0B1C112F0B2C199
:1017A00013F0B3C114F0F2EC1FF011C02EF012C010
:1017B0002FF013C030F014C031F0AB0E2A6EAA0E19
:1017C0002B6EAA0E2C6E3E0E2D6EC0EC28F02AC099
:1017D000A4F12BC0A5F12CC0A6F12DC0A7F1B0C17A
:1017E00015F0B1C116F0B2C117F0B3C118F0B0C115
:1017F00011F0B1C112F0B2C113F0B3C114F0F2ECA8
:101800001FF011C054F112C055F113C056F114C0AD
:1018100057F1B0C115F0B1C116F0B2C117F0B3C1A4
:1018200018F0A4C111F0A5C112F0A6C113F0A7C110
:1018300014F0F2EC1FF011C02EF012C02FF013C004
:1018400030F014C031F0000E2A6E000E2B6E000E28
:101850002C6E3F0E2D6EC0EC28F02AC048F12BC034
:1018600049F12CC04AF12DC04BF154C111F055C1C2
:1018700012F056C113F057C114F048C115F049C118
:1018800016F04AC117F04BC118F0F2EC1FF011C06E
:1018900044F112C045F113C046F114C047F1B0C184
:1018A00011F0B1C112F0B2C113F0B3C114F0000EC7
:1018B000156EAA0E166EB80E176E3F0E186EF2EC6D
:1018C0001FF011C074F112C075F113C076F114C08D
:1018D00077F1700E156EA50E166EEC0E176E360EA5
:1018E000186EB0C111F0B1C112F0B2C113F0B3C1A2
:1018F00014F0F2EC1FF011C02AF012C02BF013C04C
:101900002CF014C02DF03B0E156EAA0E166EB80EFC
:10191000176E3F0E186E44C111F045C112F046C15A
:1019200013F047C114F0F2EC1FF011C02EF012C0FA
:101930002FF013C030F014C031F0C0EC28F02AC0F2
:1019400078F12BC079F12CC07AF12DC07BF174C1F4
:1019500001F075C102F076C103F077C104F078C1DF
:1019600005F079C106F07AC107F07BC108F092EC6E
:101970001DF001C080F102C081F103C082F104C0FA
:1019800083F180C1B8F181C1B9F182C1BAF183C1DB
:10199000BBF1B8C190F1B9C191F1BAC192F1BBC12B
:1019A00093F1000E01019015B86FF00E9115B96F0B
:1019B000FF0E9215BA6FFF0E9315BB6FB8C180F181
:1019C000B9C181F1BAC182F1BBC183F174C12EF0FA
:1019D00075C12FF076C130F077C131F080C12AF0A7
:1019E00081C12BF082C12CF083C12DF0C0EC28F016
:1019F0002AC094F12BC095F12CC096F12DC097F11F
:101A000078C12AF079C12BF07AC12CF07BC12DF07E
:101A100094C12EF095C12FF096C130F097C131F0EE
:101A2000C0EC28F02AC01CF12BC01DF12CC01EF107
:101A30002DC01FF164EF14F0000E7C6F000E7D6F5F
:101A4000000E7E6F000E7F6FABBF32EF0DF0AB511B
:101A500007E1800EAA5DD8B030EF0DF032EF0DF047
:101A600065EF0DF070C111F071C112F072C113F089
:101A700073C114F0000E156E000E166E800E176EF8
:101A80004B0E186EF2EC1FF011C070F112C071F124
:101A900013C072F114C073F1E80E01017C27FF0E30
:101AA0007D23FF0E7E23FF0E7F2370C1B8F171C12D
:101AB000B9F172C1BAF173C1BBF1B8C1A8F1B9C132
:101AC000A9F1BAC1AAF1BBC1ABF1170E4B6EA8C107
:101AD0004CF0A9C14DF0AAC14EF0ABC14FF04B661E
:101AE00074EF0DF07CEF0DF04F344F324E324D322B
:101AF0004C324B2E6FEF0DF0810E4C24506EFF0ECA
:101B00004D20516EFF0E4E20526EFF0E4F20536E31
:101B1000505001017C2751507D2352507E23535059
:101B20007F23FF0EA815AC6FFF0EA915AD6F7F0EBA
:101B3000AA15AE6F000EAB15AF6F000EAC11A86FFB
:101B4000000EAD11A96F800EAE11AA6F3F0EAF113E
:101B5000AB6FAFBFBBEF0DF0AF510BE1720EAC5DE1
:101B6000C40EAD591C0EAE59D8B0B9EF0DF0BBEF95
:101B70000DF0C5EF0DF0000EA06F000EA16F000E6E
:101B8000A26F000EA36FF7EF0DF0AFBFD7EF0DF010
:101B9000AF510BE1D70EAC5DB30EAD595D0EAE5932
:101BA000D8B0D5EF0DF0D7EF0DF0E1EF0DF0010E4D
:101BB000A06F000EA16F000EA26F000EA36FF7EFD3
:101BC0000DF0000EA06F000EA16F000EA26F000EB0
:101BD000A36F010E7C27000E7D237E237F23000E42
:101BE000A827000EA923800EAA23FF0EAB23A8C1AD
:101BF000B8F1A9C1B9F1AAC1BAF1ABC1BBF1B8C181
:101C000070F1B9C171F1BAC172F1BBC173F170C1A8
:101C10002AF071C12BF072C12CF073C12DF0A0C15C
:101C20004BF0A1C14CF0D8904B364C36D8904B3687
:101C30004C36690E4B24F66E0D0E4C20F76E0900E3
:101C4000F5CF2EF00900F5CF2FF00900F5CF30F0D9
:101C50000A00F5CF31F0C0EC28F02AC074F12BC097
:101C600075F12CC076F12DC077F1000E326E000EAA
:101C7000336E800E346E3F0E356E70C105F071C14B
:101C800006F072C107F073C108F0A0C14BF0A1C10A
:101C90004CF0D8904B364C36D8904B364C36690EBB
:101CA0004B24F66E0D0E4C20F76E0900F5CF01F0B7
:101CB0000900F5CF02F00900F5CF03F00A00F5CFD7
:101CC00004F092EC1DF001C036F002C037F003C002
:101CD00038F004C039F007EC22F032C078F133C09C
:101CE00079F134C07AF135C07BF174C111F075C15E
:101CF00012F076C113F077C114F078C115F079C1F4
:101D000016F07AC117F07BC118F0F2EC1FF011C089
:101D10005CF112C05DF113C05EF114C05FF15CC1F3
:101D20006CF15DC16DF15EC16EF15FC16FF16CC1AF
:101D3000B8F16DC1B9F16EC1BAF16FC1BBF1B8C1F3
:101D400090F1B9C191F1BAC192F1BBC193F1000E0A
:101D500001019015B86FF00E9115B96FFF0E921535
:101D6000BA6FFF0E9315BB6FB8C16CF1B9C16DF1BD
:101D7000BAC16EF1BBC16FF1A8C14BF0A9C14CF063
:101D8000AAC14DF0ABC14EF04E344E324D324C3202
:101D90004B32000E4B144F6EF00E4C14506EFF0E73
:101DA0004D14516EFF0E4E14526E000E4F10906F78
:101DB000000E5010916F000E5110926F200E5210B5
:101DC000936FA0C14BF0A1C14CF0A2C14DF0A3C1D3
:101DD0004EF0150ED8904B364C364D364E36E82E1A
:101DE000EAEF0EF090514B244F6E91514C20506E03
:101DF00092514D20516E93514E20526E000E4F2441
:101E0000B86F000E5020B96F400E5120BA6F000E0F
:101E10005220BB6FB8C168F1B9C169F1BAC16AF1AA
:101E2000BBC16BF1A0C14BF0A1C14CF0D8904B36B7
:101E30004C36D8904B364C36690E4B24F66E0D0E50
:101E40004C20F76E0900F5CF2EF00900F5CF2FF0EA
:101E50000900F5CF30F00A00F5CF31F068C12AF063
:101E600069C12BF06AC12CF06BC12DF0C0EC28F0D9
:101E70002AC094F12BC095F12CC096F12DC097F19A
:101E800070C12AF071C12BF072C12CF073C12DF01A
:101E900094C12EF095C12FF096C130F097C131F06A
:101EA000C0EC28F02AC034F12BC035F12CC036F13B
:101EB0002DC037F168C115F069C116F06AC117F07D
:101EC0006BC118F06CC111F06DC112F06EC113F04E
:101ED0006FC114F0F2EC1FF011C02EF012C02FF001
:101EE00013C030F014C031F074C12AF075C12BF06A
:101EF00076C12CF077C12DF0C0EC28F02AC094F107
:101F00002BC095F12CC096F12DC097F134C115F07E
:101F100035C116F036C117F037C118F06CC111F099
:101F20006DC112F06EC113F06FC114F0F2EC1FF02E
:101F300011C02EF012C02FF013C030F014C031F0D9
:101F400094C12AF095C12BF096C12CF097C12DF0C9
:101F5000C0EC28F02AC054F12BC055F12CC056F12A
:101F60002DC057F154C111F055C112F056C113F0F4
:101F700057C114F078C115F079C116F07AC117F085
:101F80007BC118F0F2EC1FF011C030F112C031F13A
:101F900013C032F114C033F15CC111F05DC112F015
:101FA0005EC113F05FC114F05CC115F05DC116F0A5
:101FB0005EC117F05FC118F0F2EC1FF011C08CF198
:101FC00012C08DF113C08EF114C08FF1550E056E45
:101FD000320E066E6C0E076E3E0E086E420E156EC9
:101FE000F10E166E530E176E3E0E186E8CC111F068
:101FF0008DC112F08EC113F08FC114F0F2EC1FF0FE
:1020000011C001F012C002F013C003F014C004F0BC
:1020100092EC1DF001C0A4F102C0A5F103C0A6F12D
:1020200004C0A7F1050E056EA30E066E8B0E076E9B
:102030003E0E086E8CC115F08DC116F08EC117F0E2
:102040008FC118F0A4C111F0A5C112F0A6C113F000
:10205000A7C114F0F2EC1FF011C001F012C002F0A1
:1020600013C003F014C004F092EC1DF001C054F151
:1020700002C055F103C056F104C057F1AB0E056E16
:10208000AA0E066EAA0E076E3E0E086E8CC115F0E3
:102090008DC116F08EC117F08FC118F054C111F028
:1020A00055C112F056C113F057C114F0F2EC1FF0F5
:1020B00011C001F012C002F013C003F014C004F00C
:1020C00092EC1DF001C048F102C049F103C04AF191
:1020D00004C04BF1B70E056E6D0E066EDB0E076E7B
:1020E0003E0E086E8CC115F08DC116F08EC117F032
:1020F0008FC118F048C111F049C112F04AC113F064
:102100004BC114F0F2EC1FF011C001F012C002F04C
:1021100013C003F014C004F092EC1DF001C038F1BC
:1021200002C039F103C03AF104C03BF19A0E056ECA
:10213000990E066E190E076E3F0E086E8CC115F0D3
:102140008DC116F08EC117F08FC118F038C111F093
:1021500039C112F03AC113F03BC114F0F2EC1FF098
:1021600011C001F012C002F013C003F014C004F05B
:1021700092EC1DF001C000F102C001F103C002F1B8
:1021800004C003F18CC115F08DC116F08EC117F09B
:102190008FC118F08CC111F08DC112F08EC113F0F7
:1021A0008FC114F0F2EC1FF011C004F112C005F160
:1021B00013C006F114C007F100C111F001C112F003
:1021C00002C113F003C114F004C115F005C116F0EB
:1021D00006C117F007C118F0F2EC1FF011C04CF166
:1021E00012C04DF113C04EF114C04FF130C115F0C3
:1021F00031C116F032C117F033C118F05CC105F0DF
:102200005DC106F05EC107F05FC108F06CC101F06E
:102210006DC102F06EC103F06FC104F092EC1DF0CD
:1022200001C011F002C012F003C013F004C014F09A
:10223000F2EC1FF011C058F112C059F113C05AF15D
:1022400014C05BF14CC101F04DC102F04EC103F06E
:102250004FC104F058C105F059C106F05AC107F04A
:102260005BC108F092EC1DF001C04CF102C04DF1D1
:1022700003C04EF104C04FF16CC111F06DC112F0FA
:102280006EC113F06FC114F06CC115F06DC116F082
:102290006EC117F06FC118F0F2EC1FF011C08CF195
:1022A00012C08DF113C08EF114C08FF1000E056EB7
:1022B000000E066E400E076E400E086E8CC101F0D7
:1022C0008DC102F08EC103F08FC104F092EC1DF0BD
:1022D00001C058F102C059F103C05AF104C05BF1CA
:1022E00058C101F059C102F05AC103F05BC104F0BA
:1022F0004CC105F04DC106F04EC107F04FC108F0CA
:1023000092EC1DF001C068F102C069F103C06AF1EE
:1023100004C06BF168C1B8F169C1B9F16AC1BAF121
:102320006BC1BBF1B8C190F1B9C191F1BAC192F1E1
:10233000BBC193F1000E01019015B86FF00E91151D
:10234000B96FFF0E9215BA6FFF0E9315BB6FB8C130
:1023500068F1B9C169F1BAC16AF1BBC16BF1000E94
:10236000056E000E066E400E076EC00E086E68C148
:1023700001F069C102F06AC103F06BC104F092EC94
:102380001DF001C03CF102C03DF103C03EF104C0AC
:102390003FF18CC12EF08DC12FF08EC130F08FC176
:1023A00031F03CC12AF03DC12BF03EC12CF03FC1C1
:1023B0002DF0C0EC28F02AC040F12BC041F12CC018
:1023C00042F12DC043F14CC12AF04DC12BF04EC15A
:1023D0002CF04FC12DF040C12EF041C12FF042C171
:1023E00030F043C131F0C0EC28F02AC034F12BC0EA
:1023F00035F12CC036F12DC037F16CC111F06DC133
:1024000012F06EC113F06FC114F068C115F069C10C
:1024100016F06AC117F06BC118F0F2EC1FF011C092
:1024200074F112C075F113C076F114C077F168C170
:1024300015F069C116F06AC117F06BC118F030C110
:1024400011F031C112F032C113F033C114F0F2ECCB
:102450001FF011C001F012C002F013C003F014C04D
:1024600004F05CC115F05DC116F05EC117F05FC1EC
:1024700018F034C111F035C112F036C113F037C174
:1024800014F0F2EC1FF011C005F012C006F013C0FA
:1024900007F014C008F092EC1DF001C078F102C002
:1024A00079F103C07AF104C07BF174C101F075C108
:1024B00002F076C103F077C104F078C105F079C16C
:1024C00006F07AC107F07BC108F092EC1DF001C064
:1024D0009CF102C09DF103C09EF104C09FF19CC11C
:1024E000B8F19DC1B9F19EC1BAF19FC1BBF1B8C1AC
:1024F00090F1B9C191F1BAC192F1BBC193F1000E53
:1025000001019015B86FF00E9115B96FFF0E92157D
:10251000BA6FFF0E9315BB6FB8C19CF1B9C19DF1A5
:10252000BAC19EF1BBC19FF174C12EF075C12FF0ED
:1025300076C130F077C131F09CC12AF09DC12BF0FB
:102540009EC12CF09FC12DF0C0EC28F02AC094F160
:102550002BC095F12CC096F12DC097F178C12AF0CF
:1025600079C12BF07AC12CF07BC12DF094C12EF0F3
:1025700095C12FF096C130F097C131F0C0EC28F032
:102580002AC064F12BC065F12CC066F12DC067F143
:102590009CC111F09DC112F09EC113F09FC114F0B7
:1025A000000E156E400E166E760E176E3F0E186EEC
:1025B000F2EC1FF011C020F112C021F113C022F182
:1025C00014C023F14F0E156E380E166E760E176E70
:1025D0003F0E186E64C111F065C112F066C113F0B0
:1025E00067C114F0F2EC1FF011C005F012C006F044
:1025F00013C007F014C008F0C60E156E230E166E39
:10260000F60E176EB80E186E9CC111F09DC112F037
:102610009EC113F09FC114F0F2EC1FF011C001F045
:1026200012C002F013C003F014C004F092EC1DF0CD
:1026300001C058F102C059F103C05AF104C05BF166
:1026400058C101F059C102F05AC103F05BC104F056
:10265000A0C14BF0A1C14CF0D8904B364C36D8906D
:102660004B364C36010E4B24F66E0D0E4C20F76E99
:102670000900F5CF05F00900F5CF06F00900F5CF08
:1026800007F00A00F5CF08F092EC1DF001C024F12C
:1026900002C025F103C026F104C027F17CC101F07E
:1026A0007DC102F07EC103F07FC104F0010EEEECAB
:1026B00024F001C0B0F102C0B1F103C0B2F104C016
:1026C000B3F124C105F025C106F026C107F027C1EA
:1026D00008F020C101F021C102F022C103F023C1A2
:1026E00004F092EC1DF001C058F102C059F103C092
:1026F0005AF104C05BF1A0C14BF0A1C14CF0D890DD
:102700004B364C36D8904B364C36090E4B24F66E71
:102710000D0E4C20F76E0900F5CF05F00900F5CF3E
:1027200006F00900F5CF07F00A00F5CF08F058C110
:1027300001F059C102F05AC103F05BC104F092EC00
:102740001DF001C008F102C009F103C00AF104C084
:102750000BF108C101F009C102F00AC103F00BC17D
:1027600004F0B0C105F0B1C106F0B2C107F0B3C1C9
:1027700008F092EC1DF001C080F102C081F103C0AD
:1027800082F104C083F180C1B8F181C1B9F182C185
:10279000BAF183C1BBF1B8C190F1B9C191F1BAC12D
:1027A00092F1BBC193F1000E01019015B86FF00ECC
:1027B0009115B96FFF0E9215BA6FFF0E9315BB6F8F
:1027C000B8C180F1B9C181F1BAC182F1BBC183F155
:1027D000B0C12EF0B1C12FF0B2C130F0B3C131F0B1
:1027E00080C12AF081C12BF082C12CF083C12DF071
:1027F000C0EC28F02AC094F12BC095F12CC096F1C2
:102800002DC097F1A0C14BF0A1C14CF0D8904B3630
:102810004C36D8904B364C36090E4B24F66E0D0EC6
:102820004C20F76E0900F5CF2EF00900F5CF2FF000
:102830000900F5CF30F00A00F5CF31F094C12AF04D
:1028400095C12BF096C12CF097C12DF0C0EC28F06B
:102850002AC040F12BC041F12CC042F12DC043F100
:1028600020C12EF021C12FF022C130F023C131F060
:1028700040C12AF041C12BF042C12CF043C12DF0E0
:10288000C0EC28F02AC00CF12BC00DF12CC00EF1C9
:102890002DC00FF124C12AF025C12BF026C12CF048
:1028A00027C12DF00CC12EF00DC12FF00EC130F05C
:1028B0000FC131F0C0EC28F02AC01CF12BC01DF173
:1028C0002CC01EF12DC01FF18CC0B8F18DC0B9F124
:1028D0008EC0BAF18FC0BBF1B8C190F1B9C191F10E
:1028E000BAC192F1BBC193F1000E01019015B86F0E
:1028F000F00E9115B96FFF0E9215BA6FFF0E93157A
:10290000BB6FB8C128F1B9C129F1BAC12AF1BBC165
:102910002BF180C115F081C116F082C117F083C17F
:1029200018F028C12EF029C12FF02AC130F02BC198
:1029300031F08CC02AF08DC02BF08EC02CF08FC0EF
:102940002DF0C0EC28F02AC011F02BC012F02CC0E2
:1029500013F02DC014F0F2EC1FF011C010F112C0F2
:1029600011F113C012F114C013F110C101F011C123
:1029700002F012C103F013C104F01CC115F01DC117
:1029800016F01EC117F01FC118F08CC011F08DC0D9
:1029900012F08EC013F08FC014F0F2EC1FF011C0D3
:1029A00005F012C006F013C007F014C008F092EC56
:1029B0001DF001C064F102C065F103C066F104C0FE
:1029C00067F128C111F029C112F02AC113F02BC1FF
:1029D00014F080C115F081C116F082C117F083C1D7
:1029E00018F0F2EC1FF011C09CF112C09DF113C061
:1029F0009EF114C09FF164C101F065C102F066C18F
:102A000003F067C104F09CC105F09DC106F09EC1B2
:102A100007F09FC108F092EC1DF001C0B4F102C0B4
:102A2000B5F103C0B6F104C0B7F1B4C1B8F1B5C196
:102A3000B9F1B6C1BAF1B7C1BBF1B8C1ACF1B9C116
:102A4000ADF1BAC1AEF1BBC1AFF10101AFBF35EF1E
:102A500015F0AC05000EAD59000EAE59430EAF593E
:102A6000D8A035EF15F037EF15F06DEF15F0CA0E61
:102A7000156EF20E166E490E176E710E186E88C125
:102A800011F089C112F08AC113F08BC114F0F2EC7D
:102A90001FF011C0A4F112C0A5F113C0A6F114C01B
:102AA000A7F1A4C111F0A5C112F0A6C113F0A7C1EE
:102AB00014F0CA0E156EF20E166E490E176E710ED8
:102AC000186EF2EC1FF011C088F012C089F013C02C
:102AD0008AF014C08BF031EF1BF0430EAF19AC112C
:102AE000AD11AE11D8A477EF15F079EF15F0ECEF3A
:102AF00015F09CC12EF09DC12FF09EC130F09FC1FA
:102B000031F0B4C12AF0B5C12BF0B6C12CF0B7C179
:102B10002DF0C0EC28F02AC032F02BC033F02CC0CE
:102B200034F02DC035F03C0E056EAA0E066E380E40
:102B3000076E330E086E64C101F065C102F066C114
:102B400003F067C104F092EC1DF001C036F002C042
:102B500037F003C038F004C039F068EC27F0D8B083
:102B6000B4EF15F0B6EF15F0AEEF16F0CA0E156E15
:102B7000F20E166E490E176E710E186E88C111F0A6
:102B800089C112F08AC113F08BC114F0F2EC1FF06E
:102B900011C0A4F112C0A5F113C0A6F114C0A7F191
:102BA000A4C111F0A5C112F0A6C113F0A7C114F081
:102BB000CA0E156EF20E166E490E176E710E186E55
:102BC000F2EC1FF011C088F012C089F013C08AF037
:102BD00014C08BF031EF1BF0FF0EAC154B6EFF0EE7
:102BE000AD154C6EFF0EAE154D6E7F0EAF154E6ED1
:102BF0004EBE07EF16F04B04000E4C58160E4D5803
:102C0000430E4E58D8A007EF16F009EF16F03FEF2D
:102C100016F0600E156E420E166EA20E176E0D0E99
:102C2000186E88C111F089C112F08AC113F08BC1EE
:102C300014F0F2EC1FF011C0A4F112C0A5F113C002
:102C4000A6F114C0A7F1A4C111F0A5C112F0A6C14C
:102C500013F0A7C114F0600E156E420E166EA20E90
:102C6000176E0D0E186EF2EC1FF011C088F012C036
:102C700089F013C08AF014C08BF031EF1BF0160EF0
:102C8000AE1909E1C30EAF19AC11AD11D8A44BEFC9
:102C900016F04DEF16F0AEEF16F09CC12EF09DC170
:102CA0002FF09EC130F09FC131F0B4C12AF0B5C100
:102CB0002BF0B6C12CF0B7C12DF0C0EC28F02AC023
:102CC00032F02BC033F02CC034F02DC035F064C18D
:102CD00036F065C137F066C138F067C139F068EC8D
:102CE00027F0D8A076EF16F078EF16F0AEEF16F0DA
:102CF000600E156E420E166EA20E176E0D0E186E39
:102D000088C111F089C112F08AC113F08BC114F08F
:102D1000F2EC1FF011C0A4F112C0A5F113C0A6F18E
:102D200014C0A7F1A4C111F0A5C112F0A6C113F0FF
:102D3000A7C114F0600E156E420E166EA20E176E2D
:102D40000D0E186EF2EC1FF011C088F012C089F061
:102D500013C08AF014C08BF031EF1BF0FF0E01019D
:102D6000AC152C6FFF0EAD152D6FFF0EAE152E6F2F
:102D70007F0EAF152F6F170E4B6E2CC14CF02DC16F
:102D80004DF02EC14EF02FC14FF04B66CAEF16F03A
:102D9000D2EF16F04F344F324E324D324C324B2E72
:102DA000C5EF16F0810E4C240101A06FFF0E4D20DF
:102DB000A16FFF0E4E20A26FFF0E4F20A36F000EDB
:102DC0007C6F000E7D6F000E7E6F000E7F6F2FBF39
:102DD000F6EF16F02C05000E2D59000E2E593F0E61
:102DE0002F59D8A0F6EF16F0F8EF16F0D8EF17F03D
:102DF000A0C14BF0010E4B26000E4C6E000E4D6E26
:102E0000800E4E6E000E4F6E4B6609EF17F011EFFD
:102E100017F04F344F324E324D324C324B2E04EFBE
:102E200017F00101AC514C247C6FAD514D207D6FEA
:102E3000AE514E207E6FAF514F207F6F810E4B6E93
:102E4000FF0E4C6EFF0E4D6EFF0E4E6E170E4F6E48
:102E50007CC150F07DC151F07EC152F07FC153F072
:102E60004F6635EF17F03DEF17F0533453325232BF
:102E7000513250324F2E30EF17F050504B24010199
:102E8000A06F000E4C20A16F000E4D20A26F000E0F
:102E90004E20A36FA0C14BF0FF0E4C6EFF0E4D6E87
:102EA0007F0E4E6E000E4F6E4B6659EF17F061EFBE
:102EB00017F04F344F324E324D324C324B2E54EFCE
:102EC00017F04C1C506E4D1C516E4E1C526E4F1C18
:102ED000536E01017C515014B86F7D515114B96F7C
:102EE0007E515214BA6F7F515314BB6FB8C1B0F109
:102EF000B9C1B1F1BAC1B2F1BBC1B3F1A051170868
:102F00004B6EFF0E7C154C6EFF0E7D154D6E7F0EC9
:102F10007E154E6E000E7F154F6E000E4C10506EDB
:102F2000000E4D10516E800E4E10526E000E4F105E
:102F3000536E4B669EEF17F0A6EF17F053345332E3
:102F40005232513250324B2E99EF17F050C07CF173
:102F500051C07DF152C07EF153C07FF10101AFBF7E
:102F6000B6EF17F0B4EF17F0BEEF17F07F1F7E1F1C
:102F70007D1F7C6D000E7D237E237F239CC12AF064
:102F80009DC12BF09EC12CF09FC12DF0B0C12EF041
:102F9000B1C12FF0B2C130F0B3C131F0C0EC28F0B4
:102FA0002AC09CF12BC09DF12CC09EF12DC09FF139
:102FB00064C101F065C102F066C103F067C104F0AD
:102FC0009CC105F09DC106F09EC107F09FC108F0AD
:102FD00092EC1DF001C0B0F102C0B1F103C0B2F13A
:102FE00004C0B3F1B0C1B8F1B1C1B9F1B2C1BAF125
:102FF000B3C1BBF1B8C190F1B9C191F1BAC192F1BD
:10300000BBC193F1000E01019015B86F800E9115B0
:10301000B96FFF0E9215BA6FFF0E9315BB6FB8C153
:10302000B0F1B9C1B1F1BAC1B2F1BBC1B3F1B0C134
:1030300011F0B1C112F0B2C113F0B3C114F0000E1F
:10304000156E720E166E310E176E3F0E186EF2EC84
:103050001FF011C074F112C075F113C076F114C0E5
:1030600077F19CC12EF09DC12FF09EC130F09FC121
:1030700031F0B0C12AF0B1C12BF0B2C12CF0B3C114
:103080002DF0C0EC28F02AC094F12BC095F12CC093
:1030900096F12DC097F1180E156E720E166E310E48
:1030A000176E3F0E186E94C12EF095C12FF096C189
:1030B00030F097C131F064C12AF065C12BF066C1D0
:1030C0002CF067C12DF0C0EC28F02AC011F02BC005
:1030D00012F02CC013F02DC014F0F2EC1FF011C050
:1030E00014F112C015F113C016F114C017F114C178
:1030F00001F015C102F016C103F017C104F08C0EE7
:10310000156EBE0E166EBF0E176E350E186EB0C160
:1031100011F0B1C112F0B2C113F0B3C114F0F2EC6E
:103120001FF011C005F012C006F013C007F014C064
:1031300008F092EC1DF001C078F102C079F103C0F3
:103140007AF104C07BF174C101F075C102F076C15F
:1031500003F077C104F078C105F079C106F07AC1B7
:1031600007F07BC108F092EC1DF001C0B4F102C081
:10317000B5F103C0B6F104C0B7F174C12EF075C14A
:103180002FF076C130F077C131F0B4C12AF0B5C16B
:103190002BF0B6C12CF0B7C12DF0C0EC28F02AC03E
:1031A00094F12BC095F12CC096F12DC097F178C108
:1031B0002AF079C12BF07AC12CF07BC12DF094C19B
:1031C0002EF095C12FF096C130F097C131F0C0ECD0
:1031D00028F02AC044F12BC045F12CC046F12DC087
:1031E00047F1B4C111F0B5C112F0B6C113F0B7C1C7
:1031F00014F0B4C115F0B5C116F0B6C117F0B7C1DF
:1032000018F0F2EC1FF011C0B0F112C0B1F113C010
:10321000B2F114C0B3F10E0E056EEA0E066EDD0EAD
:10322000076EB50E086E4C0E156EBB0E166E310E87
:10323000176E330E186EB0C111F0B1C112F0B2C1E9
:1032400013F0B3C114F0F2EC1FF011C001F012C082
:1032500002F013C003F014C004F092EC1DF001C0A2
:10326000A4F102C0A5F103C0A6F104C0A7F1550E58
:10327000056EB30E066E8A0E076E380E086EB0C16C
:1032800015F0B1C116F0B2C117F0B3C118F0A4C166
:1032900011F0A5C112F0A6C113F0A7C114F0F2EC11
:1032A0001FF011C001F012C002F013C003F014C0EF
:1032B00004F092EC1DF001C054F102C055F103C0BE
:1032C00056F104C057F1610E056E0B0E066E360EF8
:1032D000076EBB0E086EB0C115F0B1C116F0B2C1D9
:1032E00017F0B3C118F054C111F055C112F056C116
:1032F00013F057C114F0F2EC1FF011C001F012C02E
:1033000002F013C003F014C004F092EC1DF001C0F1
:1033100048F102C049F103C04AF104C04BF1AB0EC1
:10332000056EAA0E066E2A0E076E3E0E086EB0C11E
:1033300015F0B1C116F0B2C117F0B3C118F048C111
:1033400011F049C112F04AC113F04BC114F0F2EC74
:103350001FF011C001F012C002F013C003F014C03E
:1033600004F092EC1DF001C038F102C039F103C045
:103370003AF104C03BF1B4C12AF0B5C12BF0B6C19B
:103380002CF0B7C12DF0B0C115F0B1C116F0B2C12B
:1033900017F0B3C118F038C111F039C112F03AC1B9
:1033A00013F03BC114F0F2EC1FF011C02EF012C06C
:1033B0002FF013C030F014C031F0C0EC28F02AC058
:1033C00080F12BC081F12CC082F12DC083F1000E61
:1033D000056E000E066E000E076EC00E086E80C1F0
:1033E00001F081C102F082C103F083C104F092ECCC
:1033F0001DF001C036F002C037F003C038F004C041
:1034000039F080C115F081C116F082C117F083C177
:1034100018F0B4C111F0B5C112F0B6C113F0B7C1C4
:1034200014F0F2EC1FF011C032F012C033F013C0F0
:1034300034F014C035F007EC22F032C03CF133C058
:103440003DF134C03EF135C03FF144C105F045C106
:1034500006F046C107F047C108F044C115F045C168
:1034600016F046C117F047C118F0B4C111F0B5C14C
:1034700012F0B6C113F0B7C114F0F2EC1FF011C096
:1034800001F012C002F013C003F014C004F092EC7B
:103490001DF001C018F102C019F103C01AF104C0F7
:1034A0001BF13CC12AF03DC12BF03EC12CF03FC1C5
:1034B0002DF018C12EF019C12FF01AC130F01BC128
:1034C00031F0C0EC28F02AC04CF12BC04DF12CC0DB
:1034D0004EF12DC04FF1B4C12EF0B5C12FF0B6C1E1
:1034E00030F0B7C131F04CC12AF04DC12BF04EC1C4
:1034F0002CF04FC12DF0C0EC28F02AC094F12BC065
:1035000095F12CC096F12DC097F1000E2A6E000E99
:103510002B6E800E2C6E3F0E2D6E94C12EF095C139
:103520002FF096C130F097C131F0C0EC28F02AC0DE
:10353000B4F12BC0B5F12CC0B6F12DC0B7F1B4C1B8
:10354000B8F1B5C1B9F1B6C1BAF1B7C1BBF1B8C1F3
:10355000ACF1B9C1ADF1BAC1AEF1BBC1AFF17CC143
:103560004BF07DC14CF07EC14DF07FC14EF0170E87
:10357000D8904B364C364D364E36E82EB8EF1AF012
:103580004B500101AC274C50AD234D50AE234E5053
:10359000AF23170E4B6EACC14CF0ADC14DF0AEC1B8
:1035A0004EF0AFC14FF04B66D8EF1AF0E0EF1AF0D3
:1035B0004F344F324E324D324C324B2ED3EF1AF045
:1035C0004FBEEFEF1AF04F504E104D1006E14C0475
:1035D000D8B0EDEF1AF0EFEF1AF007EF1BF0B4C11F
:1035E0002AF0B5C12BF0B6C12CF0B7C12DF07CC1CB
:1035F0002EF07DC12FF0D4EC23F02AC0B4F12BC003
:10360000B5F12CC0B6F12DC0B7F117EF1BF0ACC16E
:10361000B8F1ADC1B9F1AEC1BAF1AFC1BBF1B8C13A
:10362000B4F1B9C1B5F1BAC1B6F1BBC1B7F188C146
:1036300011F089C112F08AC113F08BC114F0B4C12A
:1036400015F0B5C116F0B6C117F0B7C118F0F2EC1D
:103650001FF011C088F012C089F013C08AF014C0A6
:103660008BF012003EC06CF03FC06DF040C06EF0B9
:1036700041C06FF06CC084F06DC085F06EC086F004
:103680006FC087F0000E00018415426E000E851594
:10369000436E800E8615446E7F0E8715456E800E34
:1036A000441809E17F0E451842104310D8A45BEF7F
:1036B0001BF05DEF1BF08BEF1BF03EC015F03FC021
:1036C00016F040C017F041C018F03EC011F03FC0E6
:1036D00012F040C013F041C014F0F2EC1FF011C022
:1036E00001F012C002F013C003F014C004F03EC099
:1036F00005F03FC006F040C007F041C008F092EC72
:103700001DF001C03EF002C03FF003C040F004C015
:1037100041F091EF1DF087BF9AEF1BF087518611A2
:10372000851106E18405D8B098EF1BF09AEF1BF0E5
:10373000D6EF1BF0FF0E8415426EFF0E8515436E0B
:10374000FF0E8615446E7F0E8715456E425043105E
:1037500044104510D8A4AFEF1BF0B1EF1BF0BBEF46
:103760001BF03EC03EF03FC03FF040C040F041C0C3
:1037700041F091EF1DF087BFC2EF1BF0C0EF1BF0CF
:10378000D6EF1BF0000E5A6E210E596E7D0E016EA3
:103790000D0E026E6DEC29F001C03EF002C03FF04C
:1037A00003C040F004C041F091EF1DF0170E426ECF
:1037B00084C043F085C044F086C045F087C046F021
:1037C0004266E5EF1BF0EDEF1BF046344632453222
:1037D00044324332422EE0EF1BF043C07CF044C041
:1037E0007DF045C07EF046C07FF000017C517D1128
:1037F0007E117F11D8A4FFEF1BF001EF1CF031EF19
:103800001CF0000E686F000E696F000E6A6F000EEC
:103810006B6F16EF1CF0D890843785378637873763
:10382000010E6827000E69236A236B2386AF1BEF06
:103830001CF01DEF1CF00BEF1CF0FF0E6825426E14
:10384000FF0E6921436EFF0E6A21446EFF0E6B214D
:10385000456E42507C5F43507D5B44507E5B4550DB
:103860007F5B810E7C27FF0E7D23FF0E7E23FF0EE4
:103870007F23FF0E8415426EFF0E8515436E7F0E6B
:103880008615446E000E8715456E000E4210846F3B
:10389000000E4310856F800E4410866F000E451099
:1038A000876F7CA156EF1CF058EF1CF060EF1CF006
:1038B0008451842785518523865186238751872308
:1038C0007F357F337E337D337C338451842785512C
:1038D00085238651862387518723000E646F000E4F
:1038E000656F000E666F000E676F64C070F065C094
:1038F00071F066C072F067C073F0000E806F000E4A
:10390000816F000E826F010E836FCFEF1CF080512C
:103910006425746F81516521756F82516621766FC0
:1039200083516721776F7451845D75518559765144
:1039300086598751800A426E7751800A4258D8A032
:10394000A4EF1CF0A6EF1CF0C2EF1CF08051742510
:10395000646F81517521656F82517621666F835145
:103960007721676F7451845F7551855B7651865BF3
:103970007751875B80517027815171238251722367
:10398000835173238451842785518523865186234F
:1039900087518723D890833382338133803380519A
:1039A000811182118311D8A4D8EF1CF0DAEF1CF03A
:1039B00087EF1CF08451851186118711D8B4E3EF8D
:1039C0001CF0E5EF1CF046EF1DF0000E786F000EC6
:1039D000796F800E7A6F3F0E7B6F78C032F079C0BE
:1039E00033F07AC034F07BC035F0000E366E000E36
:1039F000376E800E386E3F0E396E68EC27F0D8A017
:103A000004EF1DF006EF1DF046EF1DF0000E000163
:103A1000786F000E796F800E7A6F3F0E7B6F000E0D
:103A2000326E000E336E800E346E3F0E356E78C0EF
:103A300036F079C037F07AC038F07BC039F068ECE6
:103A400027F0D8B026EF1DF028EF1DF031EF1DF064
:103A5000020E00017027000E71237223732346EFBC
:103A60001DF0010E00017015426E000E7115436EBF
:103A7000000E7215446E000E7315456E425070278D
:103A800043507123445072234550732370C042F059
:103A900071C043F072C044F073C045F04534453204
:103AA000443243324232000E42240001846F000E41
:103AB0004320856F000E4420866F3F0E4520876FA0
:103AC0007CC042F07DC043F07EC044F07FC045F032
:103AD000170ED8904236433644364536E82E69EF05
:103AE0001DF042508427435085234450862345507F
:103AF000872384C06CF085C06DF086C06EF087C0EF
:103B00006FF06CC078F06DC079F06EC07AF06FC065
:103B10007BF078C03EF079C03FF07AC040F07BC0C7
:103B200041F012000450800B0D6E045004240F6EFF
:103B300003AE9DEF1DF09FEF1DF0A0EF1DF00F8075
:103B40000F50D8B4A6EF1DF0A8EF1DF0BDEF1DF08B
:103B50000F28D8A4AEEF1DF0B0EF1DF0B8EF1DF0A8
:103B6000000E016E000E026E000E036E000E046E5B
:103B7000038E000E046EC5EF1DF0000E016E000EE8
:103B8000026E000E036E000E046E0850800B0E6E67
:103B90000D500E18D8B4CFEF1DF0D1EF1DF0D2EFBD
:103BA0001DF00D8C085008240E6E07AEDAEF1DF0E4
:103BB000DCEF1DF0DDEF1DF00E800E50D8B4E3EF0A
:103BC0001DF0E5EF1DF0FAEF1DF00E28D8A4EBEF85
:103BD0001DF0EDEF1DF0F5EF1DF0000E056E000E6F
:103BE000066E000E076E000E086E078E000E086E41
:103BF00002EF1EF0000E056E000E066E000E076E40
:103C0000000E086E0F500E5CD8B009EF1EF00BEFDF
:103C10001EF032EF1EF00DAC10EF1EF012EF1EF092
:103C200014EF1EF0800E0D1A0FC010F00EC00FF032
:103C300010C00EF001C010F005C001F010C005F07A
:103C400002C010F006C002F010C006F003C010F071
:103C500007C003F010C007F004C010F008C004F063
:103C600010C008F0000E106E0F500EC009F00A6A66
:103C7000095E000E0A5A0ABE47EF1EF00A5009E11B
:103C80001A0E095CD8A047EF1EF049EF1EF080EF36
:103C90001EF00150021003100410D8A452EF1EF0C1
:103CA00055EF1EF0010E56EF1EF0000E106E000EC6
:103CB000016E000E026E000E036E000E046E0EC04A
:103CC0000FF089EF1EF010A068EF1EF06AEF1EF0F3
:103CD00070EF1EF0D89010300109106E72EF1EF0D8
:103CE000D890103201A077EF1EF079EF1EF07AEF36
:103CF0001EF0108E043404320332023201320F2AD5
:103D00000E500F5CD8A087EF1EF089EF1EF063EF16
:103D10001EF00DBC8EEF1EF090EF1EF0D0EF1EF0E7
:103D20000F50D8A496EF1EF098EF1EF0A2EF1EF0F1
:103D3000000E016E000E026E000E036E000E046E89
:103D4000F1EF1FF005500126065002220750032212
:103D50000850042204A0AFEF1EF0B1EF1EF05DEF9B
:103D60001FF010A0B6EF1EF0B8EF1EF0BEEF1EF071
:103D7000D89010300109106EC0EF1EF0D8901032AC
:103D800001A0C5EF1EF0C7EF1EF0C8EF1EF0108EA9
:103D9000043404320332023201320F2A5DEF1FF085
:103DA0000550015C06500258075003580450800A21
:103DB000096E0850800A0958D8B0E1EF1EF0E3EF11
:103DC0001EF00EEF1FF00150055C096E0250065800
:103DD0000A6E035007580B6E045008580C6EFF0E05
:103DE0000924016EFF0E0A20026EFF0E0B20036EE7
:103DF000FF0E0C20046E800E0D1A106C1050D8A40B
:103E000004EF1FF006EF1FF016EF1FF0010E012662
:103E1000000E02220322042216EF1FF00550015E5D
:103E20000650025A0750035A0850045A0150021013
:103E300003100410D8A41FEF1FF021EF1FF056EF5E
:103E40001FF01050D8A427EF1FF029EF1FF056EFF6
:103E50001FF0000E016E000E026E000E036E000ECB
:103E6000046EF1EF1FF0D8900136023603360436A7
:103E700010AE3DEF1FF03FEF1FF040EF1FF001804D
:103E800010A045EF1FF047EF1FF04BEF1FF0D88059
:103E900010364DEF1FF0D89010360F50D8B453EFB6
:103EA0001FF055EF1FF056EF1FF00F0603AE5BEF4C
:103EB0001FF05DEF1FF033EF1FF0000E0E6E10AE1F
:103EC00064EF1FF066EF1FF07EEF1FF010C009F0E7
:103ED0007F0E0916D8B46FEF1FF071EF1FF075EF6A
:103EE0001FF0010E0E6E7EEF1FF001A07AEF1FF0A3
:103EF0007CEF1FF07EEF1FF071EF1FF00E50D8B473
:103F000084EF1FF086EF1FF0B1EF1FF0010E0126C6
:103F1000000E02220322042204A091EF1FF093EF6F
:103F20001FF0B1EF1FF001C009F002C00AF003C09A
:103F30000BF004C00CF00C340C320B320A32093294
:103F400009C001F00AC002F00BC003F00CC004F07D
:103F50000F28D8B4AEEF1FF0B0EF1FF0B1EF1FF095
:103F60000F2A0F28D8B4B7EF1FF0B9EF1FF0C1EF39
:103F70001FF00F50D8A4BFEF1FF0C1EF1FF0D3EF19
:103F80001FF0000E016E000E026E000E036E000E9A
:103F9000046E0F50D8A4CFEF1FF0D1EF1FF0D3EF76
:103FA0001FF0000E0D6E0FA0D8EF1FF0DAEF1FF01C
:103FB000DDEF1FF0038EDEEF1FF0039ED8900F3071
:103FC000046E0DAEE6EF1FF0E8EF1FF0E9EF1FF013
:103FD000048E01C001F002C002F003C003F004C06F
:103FE00004F012001450800B1D6E14501424236E24
:103FF00013AEFDEF1FF0FFEF1FF000EF20F0238066
:104000002350D8B406EF20F008EF20F01BEF20F08B
:104010002328D8A40EEF20F010EF20F018EF20F0A6
:10402000000E116E000E126E000E136E000E146E56
:10403000138E23EF20F0000E116E000E126E000E94
:10404000136E000E146E1850800B1D1A1850182491
:10405000226E17AE2EEF20F030EF20F031EF20F07F
:1040600022802250D8B437EF20F039EF20F04CEF07
:1040700020F02228D8A43FEF20F041EF20F049EFB4
:1040800020F0000E156E000E166E000E176E000E5C
:10409000186E178E54EF20F0000E156E000E166E7F
:1040A000000E176E000E186E2250D8B45AEF20F092
:1040B0005CEF20F064EF20F02350D8A462EF20F0F2
:1040C00064EF20F06EEF20F0000E116E000E126E05
:1040D000000E136E000E146E06EF22F01750110240
:1040E000F3CF28F0F4CF29F028501E6E1F6A206A03
:1040F000216A2950246E256A266A276A1650120200
:10410000F3CF28F0F4CF29F028501E26000E1F22EE
:104110002022212229502426000E25222622272271
:1041200015501302F3CF28F0F4CF29F028501E26A3
:10413000000E1F222022212229502426000E252293
:104140002622272220C021F01FC020F01EC01FF011
:104150001E6A15501202F3CF28F0F4CF29F0285030
:104160001E2629501F22000E2022000E212216504A
:104170001102F3CF28F0F4CF29F028501E26295041
:104180001F22000E2022000E212220C021F01FC07D
:1041900020F01EC01FF01E6A15501102F3CF28F048
:1041A000F4CF29F028501E2629501F22000E20226D
:1041B000000E212217501202F3CF28F0F4CF29F07D
:1041C0002850242629502522000E2622000E2722C0
:1041D00016501302F3CF28F0F4CF29F028502426EC
:1041E00029502522000E2622000E272217501302E6
:1041F000F3CF28F0F4CF29F02850196E29501A6E09
:104200001B6A1C6A1BC01CF01AC01BF019C01AF0F4
:10421000196A195024261A5025221B5026221C5098
:1042200027221EC019F01FC01AF020C01BF021C0A9
:104230001CF0190E21EF21F0D8901C321B321A32DB
:104240001932E82E1CEF21F0195024261A5025228D
:104250001B5026221C50272220C021F01FC020F016
:104260001EC01FF01E6A225023C019F01A6A1926B8
:10427000000E1A22820E1924286EFF0E1A20296EB3
:1042800057EF21F0D890243625362636273621AE32
:104290004CEF21F04EEF21F04FEF21F02480D89029
:1042A0001E361F36203621362806D8A0290626AE0F
:1042B0005CEF21F05EEF21F042EF21F0000E226E64
:1042C00021AE65EF21F067EF21F08BEF21F0FF0EBB
:1042D0001E14196EFF0E1F141A6EFF0E20141B6E93
:1042E0007F0E21141C6E19501A101B101C10D8B40C
:1042F0007CEF21F07EEF21F082EF21F0010E226EA3
:104300008BEF21F024A087EF21F089EF21F08BEFD4
:1043100021F07EEF21F02250D8B491EF21F093EFFD
:1043200021F0B7EF21F0010E2426000E25222622CF
:10433000272227A09EEF21F0A0EF21F0B7EF21F078
:1043400024C019F025C01AF026C01BF027C01CF0AD
:104350001C341C321B321A32193219C024F01AC014
:1043600025F01BC026F01CC027F0284A292A29BEA8
:10437000C2EF21F0295008E12828D8A0C2EF21F08F
:10438000C4EF21F0CEEF21F0000E246E000E256E5A
:10439000800E266E7F0E276EFCEF21F029BEDBEF2C
:1043A00021F0295006E12804D8B0D9EF21F0DBEF45
:1043B00021F0E7EF21F0000E246E000E256E000EB6
:1043C000266E000E276E000E1D6EFCEF21F028C039
:1043D00023F0FF0E2416FF0E25167F0E2616000E64
:1043E000271623A0F6EF21F0F8EF21F0F9EF21F0E6
:1043F000268ED8902330276E1D50271224C011F02E
:1044000025C012F026C013F027C014F0120035505A
:10441000800B426E35503524496E34AE12EF22F0D7
:1044200014EF22F015EF22F049804950D8B41BEF69
:1044300022F01DEF22F032EF22F04928D8A423EF1A
:1044400022F025EF22F02DEF22F0000E326E000E4A
:10445000336E000E346E000E356E348E000E356EE7
:104460003AEF22F0000E326E000E336E000E346E04
:10447000000E356E3950800B421A395039244A6E7D
:1044800038AE45EF22F047EF22F048EF22F04A80A5
:104490004A50D8B44EEF22F050EF22F065EF22F0F0
:1044A0004A28D8A456EF22F058EF22F060EF22F00D
:1044B000000E366E000E376E000E386E000E396E2E
:1044C000388E000E396E6DEF22F0000E366E000E43
:1044D000376E000E386E000E396E365037103810B9
:1044E0003910D8A476EF22F078EF22F090EF22F086
:1044F000000E326E000E336E000E346E000E356EFE
:10450000800E34127F0E35124250351232C032F016
:1045100033C033F034C034F035C035F0D3EF23F07E
:104520004950D8A496EF22F098EF22F0A2EF22F0A3
:10453000000E326E000E336E000E346E000E356EBD
:10454000D3EF23F04A5049C03AF03B6A3A5E000E7E
:104550003B5A7F0E3A24436E000E3B20446E32C01D
:104560003EF033C03FF034C040F035C041F0000EA3
:10457000326E000E336E000E346E000E356E000E7D
:10458000456E000E466E000E476E000E486E000E21
:104590004A6E03EF23F04A50D8B4D1EF22F0D3EFA4
:1045A00022F0EAEF22F0D8903E363F3640364136D0
:1045B000D890323633363436353648AEE2EF22F014
:1045C000E4EF22F0E5EF22F03280D890453646360F
:1045D0004736483636503E5C37503F583850405882
:1045E00039504158D8A0F7EF22F0F9EF22F002EF4E
:1045F00023F0488C36503E5E37503F5A3850405A70
:104600003950415A4A2A190E4A6409EF23F00BEF38
:1046100023F0CBEF22F03E503F1040104110D8B4B1
:1046200014EF23F016EF23F02EEF23F045802EEF4A
:1046300023F0D890323633363436353648AE23EF51
:1046400023F025EF23F026EF23F03280D890453673
:104650004636473648364306D8A0440634AE33EFD4
:1046600023F035EF23F019EF23F0000E4A6E48AE29
:104670003CEF23F03EEF23F062EF23F0FF0E4514F2
:104680003A6EFF0E46143B6EFF0E47143C6E7F0ED3
:1046900048143D6E3A503B103C103D10D8B453EFD7
:1046A00023F055EF23F059EF23F0010E4A6E62EF2D
:1046B00023F032A05EEF23F060EF23F062EF23F0EF
:1046C00055EF23F04A50D8B468EF23F06AEF23F097
:1046D0008EEF23F0010E3226000E332234223522D3
:1046E00035A075EF23F077EF23F08EEF23F032C083
:1046F0003AF033C03BF034C03CF035C03DF03D34BF
:104700003D323C323B323A323AC032F03BC033F0B9
:104710003CC034F03DC035F0434A442A44BE99EFD2
:1047200023F0445008E14328D8A099EF23F09BEFF1
:1047300023F0A6EF23F0000E446E4368000E326EA5
:10474000000E336E000E346E000E356E44BEB3EFB5
:1047500023F0445006E14304D8B0B1EF23F0B3EFA7
:1047600023F0C1EF23F0000E446E000E436E000EE6
:10477000326E000E336E000E346E000E356E000E7B
:10478000426E43C049F049A0C8EF23F0CAEF23F0BE
:10479000CDEF23F0348ECEEF23F0349ED890493005
:1047A000356E84EF22F012002AC038F02BC039F0A9
:1047B0002CC03AF02DC03BF02FBEE8EF23F02F5075
:1047C00009E1800E2E5CD8A0E8EF23F0EAEF23F099
:1047D00048EF24F038C011F039C012F03AC013F09D
:1047E0003BC014F0000E156E000E166E000E176E14
:1047F0007F0E186EF2EC1FF011C038F012C039F0C5
:1048000013C03AF014C03BF0810E2E26FF0E2F226B
:104810002FBE14EF24F02F5009E1800E2E5CD8A09B
:1048200014EF24F016EF24F0B2EF24F038C011F0AA
:1048300039C012F03AC013F03BC014F0000E156EF0
:10484000000E166E000E176E7F0E186EF2EC1FF043
:1048500011C038F012C039F013C03AF014C03BF068
:10486000810E2E26FF0E2F222FBE40EF24F02F5058
:1048700009E1800E2E5CD8A040EF24F042EF24F036
:10488000B2EF24F0000E2F6E7F0E2E6EB2EF24F0EA
:104890002FAE54EF24F0820E2E5CFF0E2F58D8B0AE
:1048A00054EF24F056EF24F0B2EF24F038C011F0AA
:1048B00039C012F03AC013F03BC014F0000E156E70
:1048C000000E166E800E176E0C0E186EF2EC1FF0B6
:1048D00011C038F012C039F013C03AF014C03BF0E8
:1048E000660E2E26000E2F222FAE80EF24F0820EB1
:1048F0002E5CFF0E2F58D8B080EF24F082EF24F00A
:10490000B2EF24F038C011F039C012F03AC013F001
:104910003BC014F0000E156E000E166E800E176E62
:104920000C0E186EF2EC1FF011C038F012C039F006
:1049300013C03AF014C03BF0660E2E26000E2F2254
:104940002FAEACEF24F0820E2E5CFF0E2F58D8B0A5
:10495000ACEF24F0AEEF24F0B2EF24F0FF0E2F6E98
:10496000820E2E6E7F0E2E24306E000E2F20316EA2
:10497000326A336A170ED8903036313632363336D3
:10498000E82EBBEF24F030C034F031C035F032C037
:1049900036F033C037F034C011F035C012F036C0F5
:1049A00013F037C014F038C015F039C016F03AC013
:1049B00017F03BC018F0F2EC1FF011C02AF012C043
:1049C0002BF013C02CF014C02DF02AC02AF02BC0FD
:1049D0002BF02CC02CF02DC02DF01200096E0950C8
:1049E000D8B4F5EF24F0F7EF24F019EF25F004BE6A
:1049F000FEEF24F0FCEF24F019EF25F001C005F0E4
:104A000002C006F003C007F004C008F0051E061E31
:104A1000071E081E052A000E06220722082205C0CE
:104A20000BF006C00CF007C00DF008C00EF021EF2F
:104A300025F001C00BF002C00CF003C00DF004C063
:104A40000EF00150021003100410D8A42AEF25F034
:104A50002CEF25F036EF25F0000E016E000E026EF1
:104A6000000E036E000E046EC7EF25F0960E0A6E60
:104A700040EF25F00A2AD8900E320D320C320B325C
:104A8000000E0B14056E000E0C14066E000E0D14B5
:104A9000076EFE0E0E14086E055006100710081063
:104AA000D8A455EF25F057EF25F03AEF25F065EF44
:104AB00025F00A2A010E0B26000E0C220D220E22D2
:104AC000D8900E320D320C320B32000E0B14056EE4
:104AD000000E0C14066E000E0D14076EFF0E0E1461
:104AE000086E0550061007100810D8A47AEF25F0BC
:104AF0007CEF25F059EF25F084EF25F00A06D890D9
:104B00000B360C360D360E360DBE89EF25F08BEFC9
:104B100025F093EF25F0020E0A6091EF25F093EF58
:104B200025F07EEF25F00AB098EF25F09AEF25F0FA
:104B30009BEF25F00D9ED8900A320AC005F0066A58
:104B4000076A086A05C008F0076A066A056A055020
:104B50000B1206500C1207500D1208500E1209507D
:104B6000D8B4B5EF25F0B7EF25F0BFEF25F004BEC0
:104B7000BEEF25F0BCEF25F0BFEF25F00E8E0BC089
:104B800001F00CC002F00DC003F00EC004F01200E2
:104B9000016E0104D8A4CFEF25F0D1EF25F0D5EFB9
:104BA00025F0C150F00B0E09C16E020E0118D8A4F9
:104BB000DCEF25F0DEEF25F0E2EF25F0C150F00B41
:104BC0000D09C16E030E0118D8A4E9EF25F0EBEF33
:104BD00025F0EFEF25F0C150F00B0C09C16E040E6B
:104BE0000118D8A4F6EF25F0F8EF25F0FCEF25F03A
:104BF000C150F00B0B09C16E050E0118D8A403EFCC
:104C000026F005EF26F009EF26F0C150F00B0A0957
:104C1000C16E060E0118D8A410EF26F012EF26F090
:104C200016EF26F0C150F00B0909C16E070E0118EE
:104C3000D8A41DEF26F01FEF26F023EF26F0C15079
:104C4000F00B0809C16E080E0118D8A42AEF26F04F
:104C50002CEF26F030EF26F0C150F00B0709C16EA3
:104C6000090E0118D8A437EF26F039EF26F03DEFF2
:104C700026F0C150F00B0609C16E0A0E0118D8A427
:104C800044EF26F046EF26F04AEF26F0C150F00B35
:104C90000509C16E0B0E0118D8A451EF26F053EF91
:104CA00026F057EF26F0C150F00B0409C16E120038
:104CB000016E0150D8A45FEF26F061EF26F063EF9C
:104CC00026F0C30EC2160104D8A469EF26F06BEFDC
:104CD00026F06FEF26F0C250C30B0409C26E020E1D
:104CE0000118D8A476EF26F078EF26F07CEF26F0B6
:104CF000C250C30B0809C26E030E0118D8A483EF7B
:104D000026F085EF26F089EF26F0C250C30B0C0980
:104D1000C26E040E0118D8A490EF26F092EF26F090
:104D200096EF26F0C250C30B1009C26E050E011893
:104D3000D8A49DEF26F09FEF26F0A3EF26F0C250F7
:104D4000C30B1409C26E060E0118D8A4AAEF26F0F0
:104D5000ACEF26F0B0EF26F0C250C30B1809C26EBC
:104D6000070E0118D8A4B7EF26F0B9EF26F0BDEF73
:104D700026F0C250C30B1C09C26E080E0118D8A43D
:104D8000C4EF26F0C6EF26F0CAEF26F0C250C30BE0
:104D90002009C26E090E0118D8A4D1EF26F0D3EF76
:104DA00026F0D7EF26F0C250C30B2409C26E0A0EBC
:104DB0000118D8A4DEEF26F0E0EF26F0E4EF26F0AD
:104DC000C250C30B2809C26E1200033404340A6EA9
:104DD0000A50D8A4EEEF26F0F0EF26F0FAEF26F016
:104DE000000E016E000E026E000E036E000E046EC9
:104DF00067EF27F001C005F002C006F003C007F01E
:104E000004C008F0200E0AEF27F0D89008320732CD
:104E100006320532E82E05EF27F00550096E038EA5
:104E2000FF0E0116FF0E0216FF0E0316000E0416EB
:104E3000960E0A5E0ABE21EF27F01FEF27F037EF2C
:104E400027F00A50800A970FD8B029EF27F02BEFF0
:104E500027F02DEF27F0F0EF26F0D8900432033240
:104E6000023201320A3E2DEF27F04FEF27F01F0EDE
:104E70000A643DEF27F03FEF27F047EF27F0F0EF10
:104E800026F0D89001360236033604360A060A5058
:104E9000D8A44DEF27F04FEF27F041EF27F009504E
:104EA000D8B455EF27F057EF27F05FEF27F0041E37
:104EB000031E021E016C000E02220322042201C006
:104EC00001F002C002F003C003F004C004F01200BD
:104ED000000E32143A6E000E33143B6E800E341402
:104EE0003C6E7F0E35143D6E3A503B103C103D1029
:104EF000D8A47DEF27F07FEF27F087EF27F0000E93
:104F0000326E000E336E000E346E000E356E000EE3
:104F100036143A6E000E37143B6E800E38143C6E19
:104F20007F0E39143D6E3A503B103C103D10D8A412
:104F30009CEF27F09EEF27F0A6EF27F0000E366ECD
:104F4000000E376E000E386E000E396E35AEABEFC8
:104F500027F0ADEF27F0B6EF27F0326C331ED8B054
:104F6000332A341ED8B0342A800E355639AEBBEF02
:104F700027F0BDEF27F0C6EF27F0366C371ED8B00C
:104F8000372A381ED8B0382A800E3956000E321A09
:104F9000000E331A000E341A800E351A000E361A1F
:104FA000000E371A000E381A800E391A3650325C4D
:104FB000375033583850345839503558D8B0E3EF5B
:104FC00027F0E5EF27F0E8EF27F0D890E9EF27F09A
:104FD000D88012000001A251556E546AA351542486
:104FE000A06F000E5520A16FA0C001F0A1C002F07B
:104FF000036A046A000EEEEC24F001C094F002C0D3
:1050000095F003C096F004C097F0D90E00018C6FA4
:10501000CE0E8D6F870E8E6FBF0E8F6F94C088F08F
:1050200095C089F096C08AF097C08BF0C0EC06F06E
:1050300088C098F089C099F08AC09AF08BC09BF024
:1050400098C011F099C012F09AC013F09BC014F0F0
:10505000000E156E700E166E440E176E450E186E0D
:10506000F2EC1FF011C090F012C091F013C092F05A
:1050700014C093F090C001F091C002F092C003F010
:1050800093C004F0E5EC26F001501200096EC290C6
:105090000950C8EC25F0075019EC29F0085031EC04
:1050A00029F0000E5C6E190E5B6E000E5E6E640ED3
:1050B0005D6EC050F80B0409C06E000E026E640EE7
:1050C000016E000E046E060E036E5AEC29F0060EF9
:1050D000015C050E0258D8A070EF28F072EF28F09E
:1050E00078EF28F0C050C70B1809C06E97EF28F072
:1050F000000E026E640E016E000E046E0C0E036E46
:105100005AEC29F0060E015C050E0258D8A08BEF70
:1051100028F08DEF28F093EF28F0C050C70B280936
:10512000C06E97EF28F0C050C70B3009C06E120058
:10513000600ED36E9280000E956E98EC29F0000EF2
:10514000076E0A0E086E010E46EC28F0000E58ECB1
:1051500026F0A1EC29F0EAEC27F0586E58508DECBF
:1051600029F0060E576E130E566EAE0EE82EFED7C1
:10517000562EFCD7572EFAD7A9EF28F000EF00F0F3
:10518000000E2E1A000E2F1A000E301A800E311A41
:105190002AC001F02BC002F02CC003F02DC004F097
:1051A0002EC005F02FC006F030C007F031C008F067
:1051B00092EC1DF001C02AF002C02BF003C02CF0CD
:1051C00004C02DF012000150021003100410D8B4D6
:1051D000ECEF28F0EEEF28F0F6EF28F0000E011AC1
:1051E000000E021A000E031A800E041A01C001F00C
:1051F00002C002F003C003F004C004F012009CC01F
:1052000005F09DC006F09EC007F09FC008F001C0E9
:1052100005F002C006F003C007F004C008F0089EC5
:1052200005C001F006C002F007C003F008C004F09A
:105230001200016E0150D8A420EF29F022EF29F0CE
:1052400026EF29F0CF0EC11630EF29F00104D8A4C3
:105250002CEF29F02EEF29F030EF29F0C18AC18818
:105260001200016E080E0118D8A439EF29F03BEFA7
:1052700029F03CEF29F0C09E0A0E0118D8A443EF94
:1052800029F045EF29F046EF29F0C08E120000EE1C
:105290009CF0080EEE6AE806FDE100EE59F0070EFC
:1052A000EE6AE806FDE1000EF86E0D0EF76E0001E5
:1052B00098EF28F001500302F3CF05F0F4CF06F089
:1052C00001500402F350062602500302F350062652
:1052D00005C001F006C002F01200FF0E056EFF0EC1
:1052E000066EFF0E076E7F0E086E05C001F006C049
:1052F00002F007C003F008C004F01200C28200F000
:10530000C2B285EF29F087EF29F080EF29F000F095
:10531000C3CFA3F0C4CFA2F01200016EACA293EFF2
:1053200029F095EF29F08EEF29F001C0ADFF1200B2
:10533000948E949C260EAC6E900EAB6E190EAF6ED2
:0A5340001200C2807EEC29F012007A
:020000040020DA
:08000000FFFFFFFFFFFFFFFF00
:020000040030CA
:0E000000FF081F1EFF8081FF0FC00FE00F40A2
:00000001FF
